{
  "transactions": [
    {
      "hash": "0xbf7b94f4c3887f74dd42da6e459a49b1a6b8e37af92be61b37a6763a389f2c77",
      "transactionType": "CREATE",
      "contractName": "NFTMarketplace",
      "contractAddress": "0x078665c74c9c0c00634abda5b63df03648a2ec3e",
      "function": null,
      "arguments": [
        "250"
      ],
      "transaction": {
        "from": "0x1360eda247bf2fefecc5fd5926ac1ef628b19733",
        "gas": "0x208ca8",
        "value": "0x0",
        "input": "0x60a060405234801561001057600080fd5b50604051611cfe380380611cfe83398101604081905261002f916100f3565b60016000819055805460ff19169055338061006457604051631e4fbdf760e01b81526000600482015260240160405180910390fd5b61006d81610099565b506103e88111156100915760405163c45efcdf60e01b815260040160405180910390fd5b60805261010c565b600180546001600160a01b03838116610100818102610100600160a81b031985161790945560405193909204169182907f8be0079c531659141344cd1fd0a4f28419497f9722a3daafe3b4186f6b6457e090600090a35050565b60006020828403121561010557600080fd5b5051919050565b608051611bd061012e6000396000818161016601526112940152611bd06000f3fe6080604052600436106101095760003560e01c806388cedbc411610095578063b2ddee0611610064578063b2ddee0614610347578063b73c6ce914610367578063d98b9bb51461037c578063dee356261461038f578063f2fde38b146103af57600080fd5b806388cedbc4146102b15780638cbd4642146102d15780638da5cb5b146102fe5780639f37092a1461033457600080fd5b80634db0412c116100dc5780634db0412c146101c15780635c975abb146101e3578063715018a6146102065780638456cb591461021b57806388700d1c1461023057600080fd5b8063131b9c041461010e57806326a7b37b14610157578063297d574e1461018a5780633f4ba83a146101ac575b600080fd5b34801561011a57600080fd5b50610144610129366004611769565b6001600160a01b031660009081526005602052604090205490565b6040519081526020015b60405180910390f35b34801561016357600080fd5b507f0000000000000000000000000000000000000000000000000000000000000000610144565b34801561019657600080fd5b506101aa6101a53660046117f5565b6103cf565b005b3480156101b857600080fd5b506101aa610421565b3480156101cd57600080fd5b506101d6610433565b60405161014e919061187f565b3480156101ef57600080fd5b5060015460ff16604051901515815260200161014e565b34801561021257600080fd5b506101aa610444565b34801561022757600080fd5b506101aa610456565b34801561023c57600080fd5b5061025061024b3660046118c2565b610466565b60405161014e919081516001600160a01b03908116825260208084015190911690820152604080830151151590820152606080830151908201526080808301519082015260a0828101519082015260c0918201519181019190915260e00190565b3480156102bd57600080fd5b506101aa6102cc3660046118c2565b610524565b3480156102dd57600080fd5b506102f16102ec3660046118c2565b6106f7565b60405161014e91906118ee565b34801561030a57600080fd5b5060015461010090046001600160a01b03166040516001600160a01b03909116815260200161014e565b6101aa6103423660046118c2565b610798565b34801561035357600080fd5b506101aa6103623660046118c2565b61089c565b34801561037357600080fd5b506101aa610a14565b6101aa61038a3660046118c2565b610aa9565b34801561039b57600080fd5b506101aa6103aa366004611948565b610cca565b3480156103bb57600080fd5b506101aa6103ca366004611769565b611048565b6103d7611086565b6103e26002836110b9565b50817f6d823bbd9c63542e0b69819341e637c0c52b2f48369607c2ca92f7a92019fb8b82426040516104159291906119f9565b60405180910390a25050565b610429611086565b6104316110cc565b565b606061043f600261111e565b905090565b61044c611086565b610431600061112b565b61045e611086565b610431611185565b6040805160e081018252600080825260208201819052918101829052606081018290526080810182905260a0810182905260c0810191909152506001600160a01b038281166000908152600460208181526040808420868552825292839020835160e081018552815486168152600182015495861692810192909252600160a01b90940460ff16151592810192909252600283015460608301526003830154608083015282015460a082015260059091015460c08201525b92915050565b61052c6111c0565b6001600160a01b038281166000908152600460208181526040808420868552825292839020835160e081018552815486168152600182015495861692810192909252600160a01b90940460ff16151592810183905260028401546060820152600384015460808201529083015460a082015260059092015460c08301526105c657604051633d12c4d960e21b815260040160405180910390fd5b806080015142116105ea576040516362ead3fb60e11b815260040160405180910390fd5b60208101516001600160a01b03161561068d5761061683838360a00151846000015185602001516111ea565b81836001600160a01b031682602001516001600160a01b03167f62b4701708fd20861c5a5a26d95e3a815024ef949259e6b4e04c161b116d1f138460a00151856000015142604051610684939291909283526001600160a01b03919091166020830152604082015260600190565b60405180910390a45b506001600160a01b0382166000908152600460208181526040808420858552909152822080546001600160a01b03191681556001810180546001600160a81b03191690556002810183905560038101839055908101829055600501556106f36001600055565b5050565b6001600160a01b03821660009081526006602090815260408083208484528252808320805482518185028101850190935280835260609492939192909184015b8282101561078c576000848152602090819020604080516060810182526003860290920180546001600160a01b0316835260018082015484860152600290910154918301919091529083529092019101610737565b50505050905092915050565b6107a06111c0565b6107a8611405565b6001600160a01b038281166000908152600460208181526040808420868552825292839020835160e08101855281548616808252600183015496871693820193909352600160a01b90950460ff1615159385019390935260028301546060850152600383015460808501529082015460a084015260059091015460c083015261084357604051627b2f2760e01b815260040160405180910390fd5b806040015115610866576040516379965a1f60e01b815260040160405180910390fd5b806060015134101561088b576040516317bc538f60e31b815260040160405180910390fd5b61068d8383348460000151336111ea565b6108a46111c0565b6001600160a01b038281166000908152600460208181526040808420868552825292839020835160e08101855281548616808252600183015496871693820193909352600160a01b90950460ff1615159385019390935260028301546060850152600383015460808501529082015460a084015260059091015460c0830152331461094257604051634c65311360e11b815260040160405180910390fd5b80604001518015610957575060008160a00151115b15610975576040516362ead3fb60e11b815260040160405180910390fd5b6001600160a01b0383166000818152600460208181526040808420878552825280842080546001600160a01b03191681556001810180546001600160a81b031916905560028101859055600381018590559283018490556005909201929092555142815284929133917f74114e1af8d4d398357d12468ae7b6a7bf4144bf482db553622d275b6be6f191910160405180910390a4506106f36001600055565b610a1c6111c0565b3360009081526005602052604090205480610a4a5760405163263eb59d60e21b815260040160405180910390fd5b33600081815260056020526040812055610a649082611429565b6040805182815242602082015233917f90dac969af4a4897610ef8f0cd934c54409861eb7bd2205e552f8f2296ee5d3e910160405180910390a2506104316001600055565b610ab16111c0565b610ab9611405565b6001600160a01b038281166000908152600460208181526040808420868552825292839020835160e081018552815486168152600182015495861692810192909252600160a01b90940460ff16151592810183905260028401546060820152600384015460808201529083015460a082015260059092015460c0830152610b5357604051633d12c4d960e21b815260040160405180910390fd5b8060800151421115610b785760405163fe1f2dc760e01b815260040160405180910390fd5b60008160a00151600014610ba257662386f26fc100008260a00151610b9d9190611a31565b610ba8565b81606001515b905080341015610bd257604051627606a760e31b8152600481018290526024015b60405180910390fd5b610bdb826114bf565b6001600160a01b038481166000818152600460208181526040808420898552825280842060018082018054336001600160a01b031991821681179092553493909601839055878752600685528387208c8852855283872084516060810186528281528087018581524282880181815284548088018655948c529a89902092516003909402909201805490991692909b16919091178755985191860191909155945160029094019390935580519283529082019490945286937fd8c744a00b9e0131cbbabb5774cdf1db85f1ee81c1aada72b5c667b6168da7b8910160405180910390a450506106f36001600055565b610cd26111c0565b610cda611405565b60008411610cfb5760405163074e68b960e21b815260040160405180910390fd5b610d066002836114f6565b610d2357604051630f6e2f1b60e01b815260040160405180910390fd5b828015610d3d5750610e10811080610d3d575062278d0081115b15610d5b5760405163570e83dd60e11b815260040160405180910390fd5b60405163020604bf60e21b815260048101869052869030906001600160a01b0383169063081812fc90602401602060405180830381865afa158015610da4573d6000803e3d6000fd5b505050506040513d601f19601f82011682018060405250810190610dc89190611a44565b6001600160a01b031614610def57604051631505d81f60e31b815260040160405180910390fd5b6001600160a01b0387811660009081526004602090815260408083208a84529091529020541615610e3357604051631196de8960e01b815260040160405180910390fd5b6040516331a9108f60e11b81526004810187905233906001600160a01b03831690636352211e90602401602060405180830381865afa158015610e7a573d6000803e3d6000fd5b505050506040513d601f19601f82011682018060405250810190610e9e9190611a44565b6001600160a01b031614610ec557604051634c65311360e11b815260040160405180910390fd5b6000610ed08861150e565b90506000610edd89611576565b90506040518060e00160405280336001600160a01b0316815260200160006001600160a01b03168152602001871515815260200188815260200187610f23576000610f2d565b610f2d8642611a31565b81526000602080830182905260409283018990526001600160a01b03808e1680845260048084528585208f86528452858520875181549085166001600160a01b031990911617815587850151600180830180548b8b01511515600160a01b026001600160a81b03199091169390971692909217959095179055606088015160028201556080880151600382015560a08801519181019190915560c090960151600590960195909555898352600782528383208054918201815583529120018a90555189919033907f61db60e590194fe54315884e1726ca8dcacbf13bc06f49c413d5a899d1b7b8869061102b908c908c908c9042908b908b90611a61565b60405180910390a45050506110406001600055565b505050505050565b611050611086565b6001600160a01b03811661107a57604051631e4fbdf760e01b815260006004820152602401610bc9565b6110838161112b565b50565b6001546001600160a01b036101009091041633146104315760405163118cdaa760e01b8152336004820152602401610bc9565b60006110c5838361165d565b9392505050565b6110d46116ac565b6001805460ff191690557f5db9ee0a495bf2e6ff9c91a7834c1ba4fdd244a5e8aa4e537bd38aeae4b073aa335b6040516001600160a01b03909116815260200160405180910390a1565b606060006110c5836116cf565b600180546001600160a01b03838116610100818102610100600160a81b031985161790945560405193909204169182907f8be0079c531659141344cd1fd0a4f28419497f9722a3daafe3b4186f6b6457e090600090a35050565b61118d611405565b6001805460ff1916811790557f62e78cea01bee320cd4e420270b5ea74000d11b0c9f74754ebdbfc544b05a25833611101565b6002600054036111e357604051633ee5aeb560e01b815260040160405180910390fd5b6002600055565b60405163152a902d60e11b8152600481018590526024810184905260009081906001600160a01b03881690632a55205a906044016040805180830381865afa15801561123a573d6000803e3d6000fd5b505050506040513d601f19601f8201168201806040525081019061125e9190611aa9565b909250905084811561128a5761127d6001600160a01b03841683611429565b6112878282611ad7565b90505b60006127106112b97f000000000000000000000000000000000000000000000000000000000000000084611aea565b6112c39190611b01565b90506112f0816112e16001546001600160a01b036101009091041690565b6001600160a01b031690611429565b60006112fc8284611ad7565b6001600160a01b038816600090815260056020526040812080549293508392909190611329908490611a31565b9091555050604051632142170760e11b81526001600160a01b0388811660048301528781166024830152604482018b90528b16906342842e0e90606401600060405180830381600087803b15801561138057600080fd5b505af1158015611394573d6000803e3d6000fd5b5050604080518b81526001600160a01b038b81166020830152428284015260608201899052898116608083015291518d94508e83169350918a16917f4efdc16f52cfecc37c2cc219ac2323122fa24b2fc6d61f93414d60bae42dd7a09181900360a00190a450505050505050505050565b60015460ff16156104315760405163d93c066560e01b815260040160405180910390fd5b804710156114535760405163cf47918160e01b815247600482015260248101829052604401610bc9565b600080836001600160a01b03168360405160006040518083038185875af1925050503d80600081146114a1576040519150601f19603f3d011682016040523d82523d6000602084013e6114a6565b606091505b5091509150816114b9576114b98161172b565b50505050565b60208101516001600160a01b031615611083576110838160a0015182602001516001600160a01b031661142990919063ffffffff16565b600081815260018301602052604081205415156110c5565b6060816001600160a01b03166306fdde036040518163ffffffff1660e01b8152600401600060405180830381865afa15801561154e573d6000803e3d6000fd5b505050506040513d6000823e601f3d908101601f1916820160405261051e9190810190611b23565b6040516331a9108f60e11b81526000600482018190529081906001600160a01b03841690636352211e90602401602060405180830381865afa1580156115c0573d6000803e3d6000fd5b505050506040513d601f19601f820116820180604052508101906115e49190611a44565b90506001600160a01b038116156115fb5792915050565b826001600160a01b0316638da5cb5b6040518163ffffffff1660e01b8152600401602060405180830381865afa158015611639573d6000803e3d6000fd5b505050506040513d601f19601f820116820180604052508101906110c59190611a44565b60008181526001830160205260408120546116a45750815460018181018455600084815260208082209093018490558454848252828601909352604090209190915561051e565b50600061051e565b60015460ff1661043157604051638dfc202b60e01b815260040160405180910390fd5b60608160000180548060200260200160405190810160405280929190818152602001828054801561171f57602002820191906000526020600020905b81548152602001906001019080831161170b575b50505050509050919050565b80511561173b5780518082602001fd5b60405163d6bda27560e01b815260040160405180910390fd5b6001600160a01b038116811461108357600080fd5b60006020828403121561177b57600080fd5b81356110c581611754565b634e487b7160e01b600052604160045260246000fd5b604051601f8201601f1916810167ffffffffffffffff811182821017156117c5576117c5611786565b604052919050565b600067ffffffffffffffff8211156117e7576117e7611786565b50601f01601f191660200190565b6000806040838503121561180857600080fd5b82359150602083013567ffffffffffffffff81111561182657600080fd5b8301601f8101851361183757600080fd5b803561184a611845826117cd565b61179c565b81815286602083850101111561185f57600080fd5b816020840160208301376000602083830101528093505050509250929050565b602080825282518282018190526000918401906040840190835b818110156118b7578351835260209384019390920191600101611899565b509095945050505050565b600080604083850312156118d557600080fd5b82356118e081611754565b946020939093013593505050565b602080825282518282018190526000918401906040840190835b818110156118b757835180516001600160a01b03168452602080820151818601526040918201519185019190915290930192606090920191600101611908565b60008060008060008060c0878903121561196157600080fd5b863561196c81611754565b955060208701359450604087013593506060870135801515811461198f57600080fd5b9598949750929560808101359460a0909101359350915050565b60005b838110156119c45781810151838201526020016119ac565b50506000910152565b600081518084526119e58160208601602086016119a9565b601f01601f19169290920160200192915050565b604081526000611a0c60408301856119cd565b90508260208301529392505050565b634e487b7160e01b600052601160045260246000fd5b8082018082111561051e5761051e611a1b565b600060208284031215611a5657600080fd5b81516110c581611754565b868152851515602082015284604082015283606082015260c060808201526000611a8e60c08301856119cd565b905060018060a01b03831660a0830152979650505050505050565b60008060408385031215611abc57600080fd5b8251611ac781611754565b6020939093015192949293505050565b8181038181111561051e5761051e611a1b565b808202811582820484141761051e5761051e611a1b565b600082611b1e57634e487b7160e01b600052601260045260246000fd5b500490565b600060208284031215611b3557600080fd5b815167ffffffffffffffff811115611b4c57600080fd5b8201601f81018413611b5d57600080fd5b8051611b6b611845826117cd565b818152856020838501011115611b8057600080fd5b611b918260208301602086016119a9565b9594505050505056fea2646970667358221220ae31aa9236ec38d274a3e9805397e3ccb647fd96740a36c99b5ea90b7a8754c064736f6c634300081a003300000000000000000000000000000000000000000000000000000000000000fa",
        "nonce": "0x59",
        "chainId": "0xaa36a7"
      },
      "additionalContracts": [],
      "isFixedGasLimit": false
    },
    {
      "hash": "0x72f820db6ef81fd0d3f59ac745913b15949c608715f76db22f0e1291c42c925d",
      "transactionType": "CALL",
      "contractName": "NFTMarketplace",
      "contractAddress": "0x078665c74c9c0c00634abda5b63df03648a2ec3e",
      "function": "addCategory(bytes32,string)",
      "arguments": [
        "0x0b9e798fb63a97e2880728d6ee26a8663d4e4ab71e343d4642d35a673f78fc72",
        "Art"
      ],
      "transaction": {
        "from": "0x1360eda247bf2fefecc5fd5926ac1ef628b19733",
        "to": "0x078665c74c9c0c00634abda5b63df03648a2ec3e",
        "gas": "0x21a14",
        "value": "0x0",
        "input": "0x297d574e0b9e798fb63a97e2880728d6ee26a8663d4e4ab71e343d4642d35a673f78fc72000000000000000000000000000000000000000000000000000000000000004000000000000000000000000000000000000000000000000000000000000000034172740000000000000000000000000000000000000000000000000000000000",
        "nonce": "0x5a",
        "chainId": "0xaa36a7"
      },
      "additionalContracts": [],
      "isFixedGasLimit": false
    },
    {
      "hash": "0x012bd634a4b3bb4d2268670137fb5f7cc639cb47b4548f4142de84e2c222daed",
      "transactionType": "CALL",
      "contractName": "NFTMarketplace",
      "contractAddress": "0x078665c74c9c0c00634abda5b63df03648a2ec3e",
      "function": "addCategory(bytes32,string)",
      "arguments": [
        "0xdcbd85f7b855b680e3c6fcf6bb52fa28a833b94ff0b5292e72066b58278c47d4",
        "Collectibles"
      ],
      "transaction": {
        "from": "0x1360eda247bf2fefecc5fd5926ac1ef628b19733",
        "to": "0x078665c74c9c0c00634abda5b63df03648a2ec3e",
        "gas": "0x1b901",
        "value": "0x0",
        "input": "0x297d574edcbd85f7b855b680e3c6fcf6bb52fa28a833b94ff0b5292e72066b58278c47d40000000000000000000000000000000000000000000000000000000000000040000000000000000000000000000000000000000000000000000000000000000c436f6c6c65637469626c65730000000000000000000000000000000000000000",
        "nonce": "0x5b",
        "chainId": "0xaa36a7"
      },
      "additionalContracts": [],
      "isFixedGasLimit": false
    },
    {
      "hash": "0x5f236d60c5be39c9cffd805f33e1875a3abedec70d8fd73d42a3b79de2098dc0",
      "transactionType": "CALL",
      "contractName": "NFTMarketplace",
      "contractAddress": "0x078665c74c9c0c00634abda5b63df03648a2ec3e",
      "function": "addCategory(bytes32,string)",
      "arguments": [
        "0x801ab35ceec6a72b0dd35d2fbb65f72612351351d7640ea613397091d2d96a35",
        "Game Items"
      ],
      "transaction": {
        "from": "0x1360eda247bf2fefecc5fd5926ac1ef628b19733",
        "to": "0x078665c74c9c0c00634abda5b63df03648a2ec3e",
        "gas": "0x1b8de",
        "value": "0x0",
        "input": "0x297d574e801ab35ceec6a72b0dd35d2fbb65f72612351351d7640ea613397091d2d96a350000000000000000000000000000000000000000000000000000000000000040000000000000000000000000000000000000000000000000000000000000000a47616d65204974656d7300000000000000000000000000000000000000000000",
        "nonce": "0x5c",
        "chainId": "0xaa36a7"
      },
      "additionalContracts": [],
      "isFixedGasLimit": false
    },
    {
      "hash": "0x5c1c0afc77809cd93b1968835ad8813ede6f6dda2220fe46999b05e64ce3d294",
      "transactionType": "CALL",
      "contractName": "NFTMarketplace",
      "contractAddress": "0x078665c74c9c0c00634abda5b63df03648a2ec3e",
      "function": "addCategory(bytes32,string)",
      "arguments": [
        "0xa61dacc5dd4531e9f2bc33b275407851df288a00ddb3887a51b4308dfe230aff",
        "Music"
      ],
      "transaction": {
        "from": "0x1360eda247bf2fefecc5fd5926ac1ef628b19733",
        "to": "0x078665c74c9c0c00634abda5b63df03648a2ec3e",
        "gas": "0x1b874",
        "value": "0x0",
        "input": "0x297d574ea61dacc5dd4531e9f2bc33b275407851df288a00ddb3887a51b4308dfe230aff000000000000000000000000000000000000000000000000000000000000004000000000000000000000000000000000000000000000000000000000000000054d75736963000000000000000000000000000000000000000000000000000000",
        "nonce": "0x5d",
        "chainId": "0xaa36a7"
      },
      "additionalContracts": [],
      "isFixedGasLimit": false
    },
    {
      "hash": "0x1f58925ae38576a46560d2a7562f2393842573c2f09e9677ab49fa4a718f99e1",
      "transactionType": "CALL",
      "contractName": "NFTMarketplace",
      "contractAddress": "0x078665c74c9c0c00634abda5b63df03648a2ec3e",
      "function": "addCategory(bytes32,string)",
      "arguments": [
        "0xbde91ae80acf376eaa41aa35539db67d166e1fb505fe74fac4b0204ad77463cd",
        "Photography"
      ],
      "transaction": {
        "from": "0x1360eda247bf2fefecc5fd5926ac1ef628b19733",
        "to": "0x078665c74c9c0c00634abda5b63df03648a2ec3e",
        "gas": "0x1a06f",
        "value": "0x0",
        "input": "0x297d574ebde91ae80acf376eaa41aa35539db67d166e1fb505fe74fac4b0204ad77463cd0000000000000000000000000000000000000000000000000000000000000040000000000000000000000000000000000000000000000000000000000000000b50686f746f677261706879000000000000000000000000000000000000000000",
        "nonce": "0x5e",
        "chainId": "0xaa36a7"
      },
      "additionalContracts": [],
      "isFixedGasLimit": false
    },
    {
      "hash": "0x68ff47683c1b5bffcf626143df77fb7aa064ea873e530a75b0d35f0dadf5c32d",
      "transactionType": "CALL",
      "contractName": "NFTMarketplace",
      "contractAddress": "0x078665c74c9c0c00634abda5b63df03648a2ec3e",
      "function": "addCategory(bytes32,string)",
      "arguments": [
        "0x8dee93ee1682ab688c4ec6e8ba67f213167341b039a1ef81480f7111eb3e3c78",
        "Sports"
      ],
      "transaction": {
        "from": "0x1360eda247bf2fefecc5fd5926ac1ef628b19733",
        "to": "0x078665c74c9c0c00634abda5b63df03648a2ec3e",
        "gas": "0x1b897",
        "value": "0x0",
        "input": "0x297d574e8dee93ee1682ab688c4ec6e8ba67f213167341b039a1ef81480f7111eb3e3c780000000000000000000000000000000000000000000000000000000000000040000000000000000000000000000000000000000000000000000000000000000653706f7274730000000000000000000000000000000000000000000000000000",
        "nonce": "0x5f",
        "chainId": "0xaa36a7"
      },
      "additionalContracts": [],
      "isFixedGasLimit": false
    },
    {
      "hash": "0xadae8f26b720bbeec14533dfa06fc31bb079dca90a8dcf97654941244a254586",
      "transactionType": "CALL",
      "contractName": "NFTMarketplace",
      "contractAddress": "0x078665c74c9c0c00634abda5b63df03648a2ec3e",
      "function": "addCategory(bytes32,string)",
      "arguments": [
        "0xa0e5000d931135ebdd846434558a0157f52fa579cb116deeedcedc42aa58385c",
        "Utility"
      ],
      "transaction": {
        "from": "0x1360eda247bf2fefecc5fd5926ac1ef628b19733",
        "to": "0x078665c74c9c0c00634abda5b63df03648a2ec3e",
        "gas": "0x1b897",
        "value": "0x0",
        "input": "0x297d574ea0e5000d931135ebdd846434558a0157f52fa579cb116deeedcedc42aa58385c000000000000000000000000000000000000000000000000000000000000004000000000000000000000000000000000000000000000000000000000000000075574696c69747900000000000000000000000000000000000000000000000000",
        "nonce": "0x60",
        "chainId": "0xaa36a7"
      },
      "additionalContracts": [],
      "isFixedGasLimit": false
    },
    {
      "hash": "0xf02106cdb4095a54ed8a8ddc627ca423f01c26ddbfae41ce334d4ac48c0539e8",
      "transactionType": "CALL",
      "contractName": "NFTMarketplace",
      "contractAddress": "0x078665c74c9c0c00634abda5b63df03648a2ec3e",
      "function": "addCategory(bytes32,string)",
      "arguments": [
        "0x0691aa2e8423768d061c955d231ebcfd39568459920cd05dc1ff1ffe2ca6f04a",
        "Other"
      ],
      "transaction": {
        "from": "0x1360eda247bf2fefecc5fd5926ac1ef628b19733",
        "to": "0x078665c74c9c0c00634abda5b63df03648a2ec3e",
        "gas": "0x1a00d",
        "value": "0x0",
        "input": "0x297d574e0691aa2e8423768d061c955d231ebcfd39568459920cd05dc1ff1ffe2ca6f04a000000000000000000000000000000000000000000000000000000000000004000000000000000000000000000000000000000000000000000000000000000054f74686572000000000000000000000000000000000000000000000000000000",
        "nonce": "0x61",
        "chainId": "0xaa36a7"
      },
      "additionalContracts": [],
      "isFixedGasLimit": false
    }
  ],
  "receipts": [
    {
      "status": "0x1",
      "cumulativeGasUsed": "0xaeca98",
      "logs": [
        {
          "address": "0x078665c74c9c0c00634abda5b63df03648a2ec3e",
          "topics": [
            "0x8be0079c531659141344cd1fd0a4f28419497f9722a3daafe3b4186f6b6457e0",
            "0x0000000000000000000000000000000000000000000000000000000000000000",
            "0x0000000000000000000000001360eda247bf2fefecc5fd5926ac1ef628b19733"
          ],
          "data": "0x",
          "blockHash": "0xa558f31d23ed2e0a1c8a5b3e28fff8d66bed7ddfcd470c4a455b6c715e36a84c",
          "blockNumber": "0x738b5e",
          "transactionHash": "0xbf7b94f4c3887f74dd42da6e459a49b1a6b8e37af92be61b37a6763a389f2c77",
          "transactionIndex": "0x59",
          "logIndex": "0xa8",
          "removed": false
        }
      ],
      "logsBloom": "0x00000000000000000000000000000000000000000000000000800000000000000000000000000000000000000000000000000000000200000000000000000000000000000000400000000000000000000001000000000000000000000000000000000000020000002000000000000800000000000000000000000000000000400000000000000000000000000000000000000000000000000000000000000000000000000000000000000000000000000000000000040000000000000000000000000000000000000000000000000000000000000000020000000000000020000000000000000000000020000000000000000000000000000000000000000000",
      "type": "0x2",
      "transactionHash": "0xbf7b94f4c3887f74dd42da6e459a49b1a6b8e37af92be61b37a6763a389f2c77",
      "transactionIndex": "0x59",
      "blockHash": "0xa558f31d23ed2e0a1c8a5b3e28fff8d66bed7ddfcd470c4a455b6c715e36a84c",
      "blockNumber": "0x738b5e",
      "gasUsed": "0x190b8f",
      "effectiveGasPrice": "0x8ec32376",
      "from": "0x1360eda247bf2fefecc5fd5926ac1ef628b19733",
      "to": null,
      "contractAddress": "0x078665c74c9c0c00634abda5b63df03648a2ec3e"
    },
    {
      "status": "0x1",
      "cumulativeGasUsed": "0xb03a83",
      "logs": [
        {
          "address": "0x078665c74c9c0c00634abda5b63df03648a2ec3e",
          "topics": [
            "0x6d823bbd9c63542e0b69819341e637c0c52b2f48369607c2ca92f7a92019fb8b",
            "0x0b9e798fb63a97e2880728d6ee26a8663d4e4ab71e343d4642d35a673f78fc72"
          ],
          "data": "0x0000000000000000000000000000000000000000000000000000000000000040000000000000000000000000000000000000000000000000000000006795b5e000000000000000000000000000000000000000000000000000000000000000034172740000000000000000000000000000000000000000000000000000000000",
          "blockHash": "0xa558f31d23ed2e0a1c8a5b3e28fff8d66bed7ddfcd470c4a455b6c715e36a84c",
          "blockNumber": "0x738b5e",
          "transactionHash": "0x72f820db6ef81fd0d3f59ac745913b15949c608715f76db22f0e1291c42c925d",
          "transactionIndex": "0x5a",
          "logIndex": "0xa9",
          "removed": false
        }
      ],
      "logsBloom": "0x00000000000000000000000000000000000000000000000000000000000000000000000000000000000000010000000000000000000000000000000000000000000000000000000000000000000000000000000000000000000000000000000000000000000000000000000000000000000000000000000000000000000000000000000000000000000000000000000000000400000000000000000000000000100000000000000000000000000000000000000000040000000000000000000100000000000000000000000000000000000000000000020000000000000000000000000000000000000060010000000000000000000000000000000000000000",
      "type": "0x2",
      "transactionHash": "0x72f820db6ef81fd0d3f59ac745913b15949c608715f76db22f0e1291c42c925d",
      "transactionIndex": "0x5a",
      "blockHash": "0xa558f31d23ed2e0a1c8a5b3e28fff8d66bed7ddfcd470c4a455b6c715e36a84c",
      "blockNumber": "0x738b5e",
      "gasUsed": "0x16feb",
      "effectiveGasPrice": "0x8ec32376",
      "from": "0x1360eda247bf2fefecc5fd5926ac1ef628b19733",
      "to": "0x078665c74c9c0c00634abda5b63df03648a2ec3e",
      "contractAddress": null
    },
    {
      "status": "0x1",
      "cumulativeGasUsed": "0xb1680e",
      "logs": [
        {
          "address": "0x078665c74c9c0c00634abda5b63df03648a2ec3e",
          "topics": [
            "0x6d823bbd9c63542e0b69819341e637c0c52b2f48369607c2ca92f7a92019fb8b",
            "0xdcbd85f7b855b680e3c6fcf6bb52fa28a833b94ff0b5292e72066b58278c47d4"
          ],
          "data": "0x0000000000000000000000000000000000000000000000000000000000000040000000000000000000000000000000000000000000000000000000006795b5e0000000000000000000000000000000000000000000000000000000000000000c436f6c6c65637469626c65730000000000000000000000000000000000000000",
          "blockHash": "0xa558f31d23ed2e0a1c8a5b3e28fff8d66bed7ddfcd470c4a455b6c715e36a84c",
          "blockNumber": "0x738b5e",
          "transactionHash": "0x012bd634a4b3bb4d2268670137fb5f7cc639cb47b4548f4142de84e2c222daed",
          "transactionIndex": "0x5b",
          "logIndex": "0xaa",
          "removed": false
        }
      ],
      "logsBloom": "0x00000000000000000000000000800000000000000000000000000000000000000000000000000000000000000000000000000000000000000000000000000000000000000000000000000000000000000000000000000000000000000000000000000000000000000000000000000000000000000000000000000000000000000000000000000000000000000000000000000400000000000000000000000000100000000200000000000000000000000000000000040020000000000000000000000000000000000000000000000000000000000000020000000000000000000000000000000000000060000000000000000000000000000000000000000000",
      "type": "0x2",
      "transactionHash": "0x012bd634a4b3bb4d2268670137fb5f7cc639cb47b4548f4142de84e2c222daed",
      "transactionIndex": "0x5b",
      "blockHash": "0xa558f31d23ed2e0a1c8a5b3e28fff8d66bed7ddfcd470c4a455b6c715e36a84c",
      "blockNumber": "0x738b5e",
      "gasUsed": "0x12d8b",
      "effectiveGasPrice": "0x8ec32376",
      "from": "0x1360eda247bf2fefecc5fd5926ac1ef628b19733",
      "to": "0x078665c74c9c0c00634abda5b63df03648a2ec3e",
      "contractAddress": null
    },
    {
      "status": "0x1",
      "cumulativeGasUsed": "0xb29581",
      "logs": [
        {
          "address": "0x078665c74c9c0c00634abda5b63df03648a2ec3e",
          "topics": [
            "0x6d823bbd9c63542e0b69819341e637c0c52b2f48369607c2ca92f7a92019fb8b",
            "0x801ab35ceec6a72b0dd35d2fbb65f72612351351d7640ea613397091d2d96a35"
          ],
          "data": "0x0000000000000000000000000000000000000000000000000000000000000040000000000000000000000000000000000000000000000000000000006795b5e0000000000000000000000000000000000000000000000000000000000000000a47616d65204974656d7300000000000000000000000000000000000000000000",
          "blockHash": "0xa558f31d23ed2e0a1c8a5b3e28fff8d66bed7ddfcd470c4a455b6c715e36a84c",
          "blockNumber": "0x738b5e",
          "transactionHash": "0x5f236d60c5be39c9cffd805f33e1875a3abedec70d8fd73d42a3b79de2098dc0",
          "transactionIndex": "0x5c",
          "logIndex": "0xab",
          "removed": false
        }
      ],
      "logsBloom": "0x00000000000000000000000000000000000000000000000000000000000000000000000000000000000000000000000000000000000000000000000000000000000000000000000000000000000000000000000000000000008000000000000000000000000000000000000000000000000000000000000000000000000000000000000000000000000000000000000000000400000000000000000000000000100000000000000000000000000000000000000000040000000000000000000000000000000000000000000000000000000800000000020000000000000000000800000000000000000060000000000000000000000000000000000000000000",
      "type": "0x2",
      "transactionHash": "0x5f236d60c5be39c9cffd805f33e1875a3abedec70d8fd73d42a3b79de2098dc0",
      "transactionIndex": "0x5c",
      "blockHash": "0xa558f31d23ed2e0a1c8a5b3e28fff8d66bed7ddfcd470c4a455b6c715e36a84c",
      "blockNumber": "0x738b5e",
      "gasUsed": "0x12d73",
      "effectiveGasPrice": "0x8ec32376",
      "from": "0x1360eda247bf2fefecc5fd5926ac1ef628b19733",
      "to": "0x078665c74c9c0c00634abda5b63df03648a2ec3e",
      "contractAddress": null
    },
    {
      "status": "0x1",
      "cumulativeGasUsed": "0xb3c2ac",
      "logs": [
        {
          "address": "0x078665c74c9c0c00634abda5b63df03648a2ec3e",
          "topics": [
            "0x6d823bbd9c63542e0b69819341e637c0c52b2f48369607c2ca92f7a92019fb8b",
            "0xa61dacc5dd4531e9f2bc33b275407851df288a00ddb3887a51b4308dfe230aff"
          ],
          "data": "0x0000000000000000000000000000000000000000000000000000000000000040000000000000000000000000000000000000000000000000000000006795b5e000000000000000000000000000000000000000000000000000000000000000054d75736963000000000000000000000000000000000000000000000000000000",
          "blockHash": "0xa558f31d23ed2e0a1c8a5b3e28fff8d66bed7ddfcd470c4a455b6c715e36a84c",
          "blockNumber": "0x738b5e",
          "transactionHash": "0x5c1c0afc77809cd93b1968835ad8813ede6f6dda2220fe46999b05e64ce3d294",
          "transactionIndex": "0x5d",
          "logIndex": "0xac",
          "removed": false
        }
      ],
      "logsBloom": "0x00000000000000000000000000000000000000000000000000000000000000000000000000000000002000000000000000000000000000000000000000000000000000000004000000000000000000000000000000000000000000000000000000000000000000000000000000000000000000000000000000000000000000000000000000000000000000000000008000000400000000000000000000000000100000000000000000000000000000000000000000040000000000000000000000000000000000000000000000000000000000000000020000000000000000000000000000000000000060000000000000000000000000000000000000000000",
      "type": "0x2",
      "transactionHash": "0x5c1c0afc77809cd93b1968835ad8813ede6f6dda2220fe46999b05e64ce3d294",
      "transactionIndex": "0x5d",
      "blockHash": "0xa558f31d23ed2e0a1c8a5b3e28fff8d66bed7ddfcd470c4a455b6c715e36a84c",
      "blockNumber": "0x738b5e",
      "gasUsed": "0x12d2b",
      "effectiveGasPrice": "0x8ec32376",
      "from": "0x1360eda247bf2fefecc5fd5926ac1ef628b19733",
      "to": "0x078665c74c9c0c00634abda5b63df03648a2ec3e",
      "contractAddress": null
    },
    {
      "status": "0x1",
      "cumulativeGasUsed": "0xb4f02b",
      "logs": [
        {
          "address": "0x078665c74c9c0c00634abda5b63df03648a2ec3e",
          "topics": [
            "0x6d823bbd9c63542e0b69819341e637c0c52b2f48369607c2ca92f7a92019fb8b",
            "0xbde91ae80acf376eaa41aa35539db67d166e1fb505fe74fac4b0204ad77463cd"
          ],
          "data": "0x0000000000000000000000000000000000000000000000000000000000000040000000000000000000000000000000000000000000000000000000006795b5e0000000000000000000000000000000000000000000000000000000000000000b50686f746f677261706879000000000000000000000000000000000000000000",
          "blockHash": "0xa558f31d23ed2e0a1c8a5b3e28fff8d66bed7ddfcd470c4a455b6c715e36a84c",
          "blockNumber": "0x738b5e",
          "transactionHash": "0x1f58925ae38576a46560d2a7562f2393842573c2f09e9677ab49fa4a718f99e1",
          "transactionIndex": "0x5e",
          "logIndex": "0xad",
          "removed": false
        }
      ],
      "logsBloom": "0x00000000000000000000000000000000000000000000000000000000000000000000000000000000000000000000000000000000000000000000000000000000000000000000000400000000000000000000000000000000000000000000000000000000000000000000000000000000000000000000000000000000000000000000000000000002000000000000000000000400000000000000000000000000100000000000000000000000000000000000000000040000000000000000000000000000000000000000000000000000000000000000020000000000000000000000000000000000000060000000000000008000000000000000000000000000",
      "type": "0x2",
      "transactionHash": "0x1f58925ae38576a46560d2a7562f2393842573c2f09e9677ab49fa4a718f99e1",
      "transactionIndex": "0x5e",
      "blockHash": "0xa558f31d23ed2e0a1c8a5b3e28fff8d66bed7ddfcd470c4a455b6c715e36a84c",
      "blockNumber": "0x738b5e",
      "gasUsed": "0x12d7f",
      "effectiveGasPrice": "0x8ec32376",
      "from": "0x1360eda247bf2fefecc5fd5926ac1ef628b19733",
      "to": "0x078665c74c9c0c00634abda5b63df03648a2ec3e",
      "contractAddress": null
    },
    {
      "status": "0x1",
      "cumulativeGasUsed": "0xb61d6e",
      "logs": [
        {
          "address": "0x078665c74c9c0c00634abda5b63df03648a2ec3e",
          "topics": [
            "0x6d823bbd9c63542e0b69819341e637c0c52b2f48369607c2ca92f7a92019fb8b",
            "0x8dee93ee1682ab688c4ec6e8ba67f213167341b039a1ef81480f7111eb3e3c78"
          ],
          "data": "0x0000000000000000000000000000000000000000000000000000000000000040000000000000000000000000000000000000000000000000000000006795b5e0000000000000000000000000000000000000000000000000000000000000000653706f7274730000000000000000000000000000000000000000000000000000",
          "blockHash": "0xa558f31d23ed2e0a1c8a5b3e28fff8d66bed7ddfcd470c4a455b6c715e36a84c",
          "blockNumber": "0x738b5e",
          "transactionHash": "0x68ff47683c1b5bffcf626143df77fb7aa064ea873e530a75b0d35f0dadf5c32d",
          "transactionIndex": "0x5f",
          "logIndex": "0xae",
          "removed": false
        }
      ],
      "logsBloom": "0x00000000000000000000000000000000000000000000000000000000000000000000000000000000000000000000000000000000000000000000000000000000000000000000000000000000000000000000000000000000000000000000000400000000000000000000000000000000000200000000000000000000000000000000000000000000000000000000000000000400000000000000000000000000100000000000000000000000000000000000000000040000000000000000000000000000000000000000000000000000000000000080020000000000000000000000000000000000000060000000000000000000000000000000000000000000",
      "type": "0x2",
      "transactionHash": "0x68ff47683c1b5bffcf626143df77fb7aa064ea873e530a75b0d35f0dadf5c32d",
      "transactionIndex": "0x5f",
      "blockHash": "0xa558f31d23ed2e0a1c8a5b3e28fff8d66bed7ddfcd470c4a455b6c715e36a84c",
      "blockNumber": "0x738b5e",
      "gasUsed": "0x12d43",
      "effectiveGasPrice": "0x8ec32376",
      "from": "0x1360eda247bf2fefecc5fd5926ac1ef628b19733",
      "to": "0x078665c74c9c0c00634abda5b63df03648a2ec3e",
      "contractAddress": null
    },
    {
      "status": "0x1",
      "cumulativeGasUsed": "0xb74ab1",
      "logs": [
        {
          "address": "0x078665c74c9c0c00634abda5b63df03648a2ec3e",
          "topics": [
            "0x6d823bbd9c63542e0b69819341e637c0c52b2f48369607c2ca92f7a92019fb8b",
            "0xa0e5000d931135ebdd846434558a0157f52fa579cb116deeedcedc42aa58385c"
          ],
          "data": "0x0000000000000000000000000000000000000000000000000000000000000040000000000000000000000000000000000000000000000000000000006795b5e000000000000000000000000000000000000000000000000000000000000000075574696c69747900000000000000000000000000000000000000000000000000",
          "blockHash": "0xa558f31d23ed2e0a1c8a5b3e28fff8d66bed7ddfcd470c4a455b6c715e36a84c",
          "blockNumber": "0x738b5e",
          "transactionHash": "0xadae8f26b720bbeec14533dfa06fc31bb079dca90a8dcf97654941244a254586",
          "transactionIndex": "0x60",
          "logIndex": "0xaf",
          "removed": false
        }
      ],
      "logsBloom": "0x00000000000000000000000000000000000000000000000000000000000000000000000000000000000000000000000000000000000000000000100000000000000000000000000000000000000000000000000000000000000000200000000000000000000000000000000000000000000000000000000000000000000000000000000000000000000000000000000000000400000000000000000000000000100000000000000000000000000000000000000000040000000000000000000000000000000000000000010000000000000000000000020000000000000000000000000000000000000060000000000000000000000000000000000000000000",
      "type": "0x2",
      "transactionHash": "0xadae8f26b720bbeec14533dfa06fc31bb079dca90a8dcf97654941244a254586",
      "transactionIndex": "0x60",
      "blockHash": "0xa558f31d23ed2e0a1c8a5b3e28fff8d66bed7ddfcd470c4a455b6c715e36a84c",
      "blockNumber": "0x738b5e",
      "gasUsed": "0x12d43",
      "effectiveGasPrice": "0x8ec32376",
      "from": "0x1360eda247bf2fefecc5fd5926ac1ef628b19733",
      "to": "0x078665c74c9c0c00634abda5b63df03648a2ec3e",
      "contractAddress": null
    },
    {
      "status": "0x1",
      "cumulativeGasUsed": "0xb877e8",
      "logs": [
        {
          "address": "0x078665c74c9c0c00634abda5b63df03648a2ec3e",
          "topics": [
            "0x6d823bbd9c63542e0b69819341e637c0c52b2f48369607c2ca92f7a92019fb8b",
            "0x0691aa2e8423768d061c955d231ebcfd39568459920cd05dc1ff1ffe2ca6f04a"
          ],
          "data": "0x0000000000000000000000000000000000000000000000000000000000000040000000000000000000000000000000000000000000000000000000006795b5e000000000000000000000000000000000000000000000000000000000000000054f74686572000000000000000000000000000000000000000000000000000000",
          "blockHash": "0xa558f31d23ed2e0a1c8a5b3e28fff8d66bed7ddfcd470c4a455b6c715e36a84c",
          "blockNumber": "0x738b5e",
          "transactionHash": "0xf02106cdb4095a54ed8a8ddc627ca423f01c26ddbfae41ce334d4ac48c0539e8",
          "transactionIndex": "0x61",
          "logIndex": "0xb0",
          "removed": false
        }
      ],
      "logsBloom": "0x00000000000000000000000000000000000000000000000000000000000000000000000000000000000000000000000000000000000000000000000000000000000000000000000000000000000000000000000000000000000000000000000000000000000000000000000000000000000000000000000000000400000000000000000000000000000000000000000000000400000000000000000000000000100000000000000000000020000000000000000000040000000000000000000000000000000000000000000000000000000000000200020000000000000000000000000000000000000060000000000000000000000000000000000000000000",
      "type": "0x2",
      "transactionHash": "0xf02106cdb4095a54ed8a8ddc627ca423f01c26ddbfae41ce334d4ac48c0539e8",
      "transactionIndex": "0x61",
      "blockHash": "0xa558f31d23ed2e0a1c8a5b3e28fff8d66bed7ddfcd470c4a455b6c715e36a84c",
      "blockNumber": "0x738b5e",
      "gasUsed": "0x12d37",
      "effectiveGasPrice": "0x8ec32376",
      "from": "0x1360eda247bf2fefecc5fd5926ac1ef628b19733",
      "to": "0x078665c74c9c0c00634abda5b63df03648a2ec3e",
      "contractAddress": null
    }
  ],
  "libraries": [],
  "pending": [],
  "returns": {
    "0": {
      "internal_type": "contract NFTMarketplace",
      "value": "0x078665C74c9C0C00634Abda5B63dF03648a2ec3e"
    },
    "1": {
      "internal_type": "contract HelperConfig",
      "value": "0xC7f2Cf4845C6db0e1a1e91ED41Bcd0FcC1b0E141"
    }
  },
  "timestamp": 1737864678,
  "chain": 11155111,
  "commit": "243cc9a"
}