{
  "transactions": [
    {
      "hash": "0x249fe8017c0c460db980c034afa3c705d068c92a4e3dfae1424651eaf7566270",
      "transactionType": "CREATE",
      "contractName": "NFTMarketplace",
      "contractAddress": "0x29cdad5194854d2063da1b751dbab7fac7b3b9fc",
      "function": null,
      "arguments": [
        "250"
      ],
      "transaction": {
        "from": "0x1360eda247bf2fefecc5fd5926ac1ef628b19733",
        "gas": "0x3a669a",
        "value": "0x0",
        "input": "0x60a060405234801561001057600080fd5b5060405161347138038061347183398101604081905261002f916100d0565b60016000819055805460ff19169055338061006457604051631e4fbdf760e01b81526000600482015260240160405180910390fd5b61006d81610076565b506080526100e9565b600180546001600160a01b03838116610100818102610100600160a81b031985161790945560405193909204169182907f8be0079c531659141344cd1fd0a4f28419497f9722a3daafe3b4186f6b6457e090600090a35050565b6000602082840312156100e257600080fd5b5051919050565b60805161336661010b60003960008181610213015261293401526133666000f3fe60806040526004361061019c5760003560e01c80638456cb59116100ec578063b2ddee061161008a578063d98b9bb511610064578063d98b9bb5146105f6578063e0f3aa1114610609578063f2fde38b14610629578063f772adf11461064957600080fd5b8063b2ddee061461059a578063b73c6ce9146105ba578063cf44b5d5146105cf57600080fd5b80638cbd4642116100c65780638cbd4642146105035780638da5cb5b146105305780639f37092a14610567578063a02103091461057a57600080fd5b80638456cb591461039557806388700d1c146103aa57806388cedbc4146104e357600080fd5b8063486205f411610159578063715018a611610133578063715018a6146102f35780637ea3047d1461030857806380f03b6814610338578063812d966a1461036557600080fd5b8063486205f41461028e5780634db0412c146102ae5780635c975abb146102d057600080fd5b8063131b9c04146101a1578063162296fa146101ea57806326a7b37b14610204578063297d574e1461023757806339b6b1e5146102595780633f4ba83a14610279575b600080fd5b3480156101ad57600080fd5b506101d76101bc366004612c4c565b6001600160a01b031660009081526003602052604090205490565b6040519081526020015b60405180910390f35b3480156101f657600080fd5b50662386f26fc100006101d7565b34801561021057600080fd5b507f00000000000000000000000000000000000000000000000000000000000000006101d7565b34801561024357600080fd5b50610257610252366004612cd6565b610669565b005b34801561026557600080fd5b50610257610274366004612d5f565b6106bb565b34801561028557600080fd5b50610257610815565b34801561029a57600080fd5b506102576102a9366004612d8b565b610827565b3480156102ba57600080fd5b506102c3610c4d565b6040516101e19190612de2565b3480156102dc57600080fd5b5060015460ff1660405190151581526020016101e1565b3480156102ff57600080fd5b50610257610ce1565b34801561031457600080fd5b50610328610323366004612e25565b610cf3565b6040516101e19493929190612ec8565b34801561034457600080fd5b50610358610353366004612c4c565b61103b565b6040516101e19190612f70565b34801561037157600080fd5b5061037a61104c565b604080519384526020840192909252908201526060016101e1565b3480156103a157600080fd5b50610257611235565b3480156103b657600080fd5b506104826103c5366004612d5f565b6040805160e081018252600080825260208201819052918101829052606081018290526080810182905260a0810182905260c0810191909152506001600160a01b038281166000908152600260208181526040808420868552825292839020835160e081018552815486168152600182015495861692810192909252600160a01b90940460ff16151592810192909252820154606082015260038201546080820152600482015460a082015260059091015460c082015292915050565b6040516101e1919081516001600160a01b03908116825260208084015190911690820152604080830151151590820152606080830151908201526080808301519082015260a0828101519082015260c0918201519181019190915260e00190565b3480156104ef57600080fd5b506102576104fe366004612d5f565b611245565b34801561050f57600080fd5b5061052361051e366004612d5f565b611414565b6040516101e19190612f83565b34801561053c57600080fd5b5060015461010090046001600160a01b03165b6040516001600160a01b0390911681526020016101e1565b610257610575366004612d5f565b6114b5565b34801561058657600080fd5b5061054f610595366004612c4c565b6115b9565b3480156105a657600080fd5b506102576105b5366004612d5f565b6115c4565b3480156105c657600080fd5b5061025761173d565b3480156105db57600080fd5b506105e46117d2565b6040516101e196959493929190612fdd565b610257610604366004612d5f565b611dee565b34801561061557600080fd5b5061037a610624366004612c4c565b612029565b34801561063557600080fd5b50610257610644366004612c4c565b612231565b34801561065557600080fd5b5061025761066436600461305f565b61226f565b6106716123fa565b61067c60068361242d565b50817f6d823bbd9c63542e0b69819341e637c0c52b2f48369607c2ca92f7a92019fb8b82426040516106af929190613094565b60405180910390a25050565b6106c3612440565b6001600160a01b038281166000908152600260208181526040808420868552825292839020835160e081018552815486168152600182015495861692810192909252600160a01b90940460ff16151592810183905290830154606082015260038301546080820152600483015460a082015260059092015460c083015261075d57604051633d12c4d960e21b815260040160405180910390fd5b60208101516001600160a01b0316331461078a5760405163962bd23360e01b815260040160405180910390fd5b806080015142106107ae5760405163fe1f2dc760e01b815260040160405180910390fd5b60a08101516107be84848461246a565b6040805182815242602082015284916001600160a01b0387169133917f46cce332df0365db367d477c6d8e48abceacdfc4d835aaa4417ba74567fafb28910160405180910390a450506108116001600055565b5050565b61081d6123fa565b610825612602565b565b61082f612440565b610837612654565b600083116108585760405163074e68b960e21b815260040160405180910390fd5b610863600682612678565b61088057604051630f6e2f1b60e01b815260040160405180910390fd5b60405163020604bf60e21b815260048101859052859030906001600160a01b0383169063081812fc90602401602060405180830381865afa1580156108c9573d6000803e3d6000fd5b505050506040513d601f19601f820116820180604052508101906108ed91906130b6565b6001600160a01b03161461091457604051631505d81f60e31b815260040160405180910390fd5b6001600160a01b038681166000908152600260209081526040808320898452909152902054161561095857604051631196de8960e01b815260040160405180910390fd5b6040516331a9108f60e11b81526004810186905233906001600160a01b03831690636352211e90602401602060405180830381865afa15801561099f573d6000803e3d6000fd5b505050506040513d601f19601f820116820180604052508101906109c391906130b6565b6001600160a01b0316146109ea57604051634c65311360e11b815260040160405180910390fd5b60006109f587612690565b90506000610a02886126f8565b90506040518060e00160405280336001600160a01b0316815260200160006001600160a01b03168152602001861515815260200187815260200186610a48576000610a55565b610a5562093a80426130e9565b81526020016000815260200185815250600260008a6001600160a01b03166001600160a01b03168152602001908152602001600020600089815260200190815260200160002060008201518160000160006101000a8154816001600160a01b0302191690836001600160a01b0316021790555060208201518160010160006101000a8154816001600160a01b0302191690836001600160a01b0316021790555060408201518160010160146101000a81548160ff021916908315150217905550606082015181600201556080820151816003015560a0820151816004015560c082015181600501559050506005600085815260200190815260200160002060405180606001604052808a6001600160a01b0316815260200189815260200186815250908060018154018082558091505060019003906000526020600020906003020160009091909190915060008201518160000160006101000a8154816001600160a01b0302191690836001600160a01b031602179055506020820151816001015560408201518160020155505086886001600160a01b0316336001600160a01b03167f61db60e590194fe54315884e1726ca8dcacbf13bc06f49c413d5a899d1b7b886898989428989604051610c31969594939291906130fc565b60405180910390a4505050610c466001600055565b5050505050565b60606000610c5b60066127df565b9050806001600160401b03811115610c7557610c75612c69565b604051908082528060200260200182016040528015610c9e578160200160208202803683370190505b50915060005b81811015610cdc57610cb76006826127e9565b838281518110610cc957610cc9613144565b6020908102919091010152600101610ca4565b505090565b610ce96123fa565b61082560006127f5565b60008381526005602052604090208054606091829182918291808810610d495750506040805160008082526020820181815282840182815260608401928352608084019094529196509094509092509050611032565b600081610d56898b6130e9565b11610d6a57610d65888a6130e9565b610d6c565b815b90506000610d7a8a8361315a565b9050806001600160401b03811115610d9457610d94612c69565b604051908082528060200260200182016040528015610dbd578160200160208202803683370190505b509750806001600160401b03811115610dd857610dd8612c69565b604051908082528060200260200182016040528015610e01578160200160208202803683370190505b509650806001600160401b03811115610e1c57610e1c612c69565b604051908082528060200260200182016040528015610e45578160200160208202803683370190505b509550806001600160401b03811115610e6057610e60612c69565b604051908082528060200260200182016040528015610e89578160200160208202803683370190505b50945060005b8181101561102c57600085610ea4838e6130e9565b81548110610eb457610eb4613144565b600091825260208083206040805160608082018352600395860290930180546001600160a01b0390811680845260018084015485890190815260029485015486880152918a52838852858a2091518a5290875297849020845160e081018652815483168082529982015492831697810197909752600160a01b90910460ff1615159386019390935282015492840192909252928301546080830152600483015460a083015260059092015460c082015290925090156110225780600001518b8481518110610f8457610f84613144565b60200260200101906001600160a01b031690816001600160a01b03168152505080606001518a8481518110610fbb57610fbb613144565b6020026020010181815250508160000151898481518110610fde57610fde613144565b60200260200101906001600160a01b031690816001600160a01b031681525050816020015188848151811061101557611015613144565b6020026020010181815250505b5050600101610e8f565b50505050505b93509350935093565b606061104682612690565b92915050565b600080600061105b60066127df565b90506000306001600160a01b0316634db0412c6040518163ffffffff1660e01b8152600401600060405180830381865afa15801561109d573d6000803e3d6000fd5b505050506040513d6000823e601f3d908101601f191682016040526110c5919081019061316d565b905060005b815181101561122e576000600560008484815181106110eb576110eb613144565b60200260200101518152602001908152602001600020905060005b81548110156112245760006002600084848154811061112757611127613144565b600091825260208083206003909202909101546001600160a01b031683528201929092526040018120845490919085908590811061116757611167613144565b600091825260208083206003928302016001908101548552848201959095526040938401909220835160e08101855281546001600160a01b039081168083529683015490811694820194909452600160a01b90930460ff16151593830193909352600283015460608301528201546080820152600482015460a082015260059091015460c082015291501561121b57876112008161320d565b98505080604001511561121b57866112178161320d565b9750505b50600101611106565b50506001016110ca565b5050909192565b61123d6123fa565b61082561284f565b61124d612440565b6001600160a01b038281166000908152600260208181526040808420868552825292839020835160e081018552815486168152600182015495861692810192909252600160a01b90940460ff16151592810183905290830154606082015260038301546080820152600483015460a082015260059092015460c08301526112e757604051633d12c4d960e21b815260040160405180910390fd5b8060800151421161130b576040516362ead3fb60e11b815260040160405180910390fd5b60208101516001600160a01b0316156113ae5761133783838360a001518460000151856020015161288a565b81836001600160a01b031682602001516001600160a01b03167f62b4701708fd20861c5a5a26d95e3a815024ef949259e6b4e04c161b116d1f138460a001518560000151426040516113a5939291909283526001600160a01b03919091166020830152604082015260600190565b60405180910390a45b506001600160a01b0382166000908152600260208181526040808420858552909152822080546001600160a01b03191681556001810180546001600160a81b03191690559081018290556003810182905560048101829055600501556108116001600055565b6001600160a01b03821660009081526004602090815260408083208484528252808320805482518185028101850190935280835260609492939192909184015b828210156114a9576000848152602090819020604080516060810182526003860290920180546001600160a01b0316835260018082015484860152600290910154918301919091529083529092019101611454565b50505050905092915050565b6114bd612440565b6114c5612654565b6001600160a01b038281166000908152600260208181526040808420868552825292839020835160e08101855281548616808252600183015496871693820193909352600160a01b90950460ff1615159385019390935290820154606084015260038201546080840152600482015460a084015260059091015460c083015261156057604051627b2f2760e01b815260040160405180910390fd5b806040015115611583576040516379965a1f60e01b815260040160405180910390fd5b80606001513410156115a8576040516317bc538f60e31b815260040160405180910390fd5b6113ae83833484600001513361288a565b6000611046826126f8565b6115cc612440565b6001600160a01b038281166000908152600260208181526040808420868552825292839020835160e08101855281548616808252600183015496871693820193909352600160a01b90950460ff1615159385019390935290820154606084015260038201546080840152600482015460a084015260059091015460c0830152331461166a57604051634c65311360e11b815260040160405180910390fd5b8060400151801561167f575060008160a00151115b1561169d576040516362ead3fb60e11b815260040160405180910390fd5b6001600160a01b0383166000818152600260208181526040808420878552825280842080546001600160a01b03191681556001810180546001600160a81b031916905592830184905560038301849055600483018490556005909201929092555142815284929133917f74114e1af8d4d398357d12468ae7b6a7bf4144bf482db553622d275b6be6f19191015b60405180910390a4506108116001600055565b611745612440565b33600090815260036020526040902054806117735760405163263eb59d60e21b815260040160405180910390fd5b3360008181526003602052604081205561178d9082612aa5565b6040805182815242602082015233917f90dac969af4a4897610ef8f0cd934c54409861eb7bd2205e552f8f2296ee5d3e910160405180910390a2506108256001600055565b606080606080606080600080306001600160a01b0316634db0412c6040518163ffffffff1660e01b8152600401600060405180830381865afa15801561181c573d6000803e3d6000fd5b505050506040513d6000823e601f3d908101601f19168201604052611844919081019061316d565b905060005b81518110156119a55760006005600084848151811061186a5761186a613144565b60200260200101518152602001908152602001600020905060005b815481101561199b576000600260008484815481106118a6576118a6613144565b600091825260208083206003909202909101546001600160a01b03168352820192909252604001812084549091908590859081106118e6576118e6613144565b600091825260208083206003928302016001908101548552848201959095526040938401909220835160e08101855281546001600160a01b0390811682529582015495861693810193909352600160a01b90940460ff1615801593830184905260028501546060840152908401546080830152600484015460a083015260059093015460c082015292509061197f575080608001514211155b15611992578561198e8161320d565b9650505b50600101611885565b5050600101611849565b50816001600160401b038111156119be576119be612c69565b6040519080825280602002602001820160405280156119e7578160200160208202803683370190505b509750816001600160401b03811115611a0257611a02612c69565b604051908082528060200260200182016040528015611a2b578160200160208202803683370190505b509650816001600160401b03811115611a4657611a46612c69565b604051908082528060200260200182016040528015611a6f578160200160208202803683370190505b509550816001600160401b03811115611a8a57611a8a612c69565b604051908082528060200260200182016040528015611ab3578160200160208202803683370190505b509450816001600160401b03811115611ace57611ace612c69565b604051908082528060200260200182016040528015611af7578160200160208202803683370190505b509350816001600160401b03811115611b1257611b12612c69565b604051908082528060200260200182016040528015611b3b578160200160208202803683370190505b5092506000805b8251811015611de257600060056000858481518110611b6357611b63613144565b60200260200101518152602001908152602001600020905060005b8154811015611dd857600060026000848481548110611b9f57611b9f613144565b600091825260208083206003909202909101546001600160a01b0316835282019290925260400181208454909190859085908110611bdf57611bdf613144565b600091825260208083206003928302016001908101548552848201959095526040938401909220835160e08101855281546001600160a01b0390811682529582015495861693810193909352600160a01b90940460ff1615801593830184905260028501546060840152908401546080830152600484015460a083015260059093015460c0820152925090611c78575080608001514211155b15611dcf57828281548110611c8f57611c8f613144565b60009182526020909120600390910201548d516001600160a01b03909116908e9087908110611cc057611cc0613144565b60200260200101906001600160a01b031690816001600160a01b031681525050828281548110611cf257611cf2613144565b9060005260206000209060030201600101548c8681518110611d1657611d16613144565b60200260200101818152505080600001518b8681518110611d3957611d39613144565b60200260200101906001600160a01b031690816001600160a01b03168152505080606001518a8681518110611d7057611d70613144565b6020026020010181815250508060800151898681518110611d9357611d93613144565b6020026020010181815250508060a00151888681518110611db657611db6613144565b602090810291909101015284611dcb8161320d565b9550505b50600101611b7e565b5050600101611b42565b50505050909192939495565b611df6612440565b611dfe612654565b6001600160a01b038281166000908152600260208181526040808420868552825292839020835160e081018552815486168152600182015495861692810192909252600160a01b90940460ff16151592810183905290830154606082015260038301546080820152600483015460a082015260059092015460c0830152611e9857604051633d12c4d960e21b815260040160405180910390fd5b8060800151421115611ebd5760405163fe1f2dc760e01b815260040160405180910390fd5b8060a00151600003611f04578060600151341015611eff578060600151604051630eb3168360e21b8152600401611ef691815260200190565b60405180910390fd5b611f43565b6000662386f26fc100008260a00151611f1d91906130e9565b9050803411611f4157604051627606a760e31b815260048101829052602401611ef6565b505b611f4c81612b3b565b6001600160a01b038381166000818152600260208181526040808420888552825280842060018082018054336001600160a01b031991821681179092553460049485018190558989529386528488208c8952865284882085516060810187528381528088018681524282890181815284548089018655948d529b8a902092516003909402909201805490941692909c16919091178255995192810192909255955194019390935580519283529082019490945285937fd8c744a00b9e0131cbbabb5774cdf1db85f1ee81c1aada72b5c667b6168da7b8910161172a565b6001600160a01b03811660009081526003602052604080822054815163136c104b60e21b81529151839283913091634db0412c91600480830192869291908290030181865afa158015612080573d6000803e3d6000fd5b505050506040513d6000823e601f3d908101601f191682016040526120a8919081019061316d565b905060005b8151811015612228576000600560008484815181106120ce576120ce613144565b60200260200101518152602001908152602001600020905060005b815481101561221e5760006002600084848154811061210a5761210a613144565b600091825260208083206003909202909101546001600160a01b031683528201929092526040018120845490919085908590811061214a5761214a613144565b600091825260208083206003928302016001908101548552848201959095526040938401909220835160e08101855281546001600160a01b039081168083529683015480821695830195909552600160a01b90940460ff1615159481019490945260028101546060850152908101546080840152600481015460a08401526005015460c08301529092508a1690036121ea57876121e68161320d565b9850505b886001600160a01b031681602001516001600160a01b03160361221557866122118161320d565b9750505b506001016120e9565b50506001016120ad565b50509193909250565b6122396123fa565b6001600160a01b03811661226357604051631e4fbdf760e01b815260006004820152602401611ef6565b61226c816127f5565b50565b612277612440565b600081116122985760405163074e68b960e21b815260040160405180910390fd5b6001600160a01b038381166000908152600260208181526040808420878552825292839020835160e08101855281548616808252600183015496871693820193909352600160a01b90950460ff1615159385019390935290820154606084015260038201546080840152600482015460a084015260059091015460c0830152331461233657604051634c65311360e11b815260040160405180910390fd5b80604001511561235957604051633d12c4d960e21b815260040160405180910390fd5b600061236485612690565b90506000612371866126f8565b6001600160a01b03871660008181526002602081815260408084208b855290915291829020018790558581015160c08701519151939450889333927f61db60e590194fe54315884e1726ca8dcacbf13bc06f49c413d5a899d1b7b886926123e0928b929042908b908b906130fc565b60405180910390a45050506123f56001600055565b505050565b6001546001600160a01b036101009091041633146108255760405163118cdaa760e01b8152336004820152602401611ef6565b60006124398383612b72565b9392505050565b60026000540361246357604051633ee5aeb560e01b815260040160405180910390fd5b6002600055565b6001600160a01b03831660009081526004602090815260408083208584529091528120805490919081906001101561255e5782546000906124ad9060029061315a565b90505b336001600160a01b03168482815481106124cc576124cc613144565b60009182526020909120600390910201546001600160a01b031614612544578381815481106124fd576124fd613144565b906000526020600020906003020160010154925083818154811061252357612523613144565b60009182526020909120600390910201546001600160a01b0316915061255c565b801561255c578061255481613226565b9150506124b0565b505b6001600160a01b03868116600090815260026020908152604080832089845290915290206001810180546001600160a01b031916928416929092179091556004018290558254156125ea57828054806125b9576125b961323d565b60008281526020812060036000199093019283020180546001600160a01b0319168155600181018290556002015590555b60a08401516125fa903390612aa5565b505050505050565b61260a612bc1565b6001805460ff191690557f5db9ee0a495bf2e6ff9c91a7834c1ba4fdd244a5e8aa4e537bd38aeae4b073aa335b6040516001600160a01b03909116815260200160405180910390a1565b60015460ff16156108255760405163d93c066560e01b815260040160405180910390fd5b60008181526001830160205260408120541515612439565b6060816001600160a01b03166306fdde036040518163ffffffff1660e01b8152600401600060405180830381865afa1580156126d0573d6000803e3d6000fd5b505050506040513d6000823e601f3d908101601f191682016040526110469190810190613253565b6040516331a9108f60e11b81526000600482018190529081906001600160a01b03841690636352211e90602401602060405180830381865afa158015612742573d6000803e3d6000fd5b505050506040513d601f19601f8201168201806040525081019061276691906130b6565b90506001600160a01b0381161561277d5792915050565b826001600160a01b0316638da5cb5b6040518163ffffffff1660e01b8152600401602060405180830381865afa1580156127bb573d6000803e3d6000fd5b505050506040513d601f19601f8201168201806040525081019061243991906130b6565b6000611046825490565b60006124398383612be4565b600180546001600160a01b03838116610100818102610100600160a81b031985161790945560405193909204169182907f8be0079c531659141344cd1fd0a4f28419497f9722a3daafe3b4186f6b6457e090600090a35050565b612857612654565b6001805460ff1916811790557f62e78cea01bee320cd4e420270b5ea74000d11b0c9f74754ebdbfc544b05a25833612637565b60405163152a902d60e11b8152600481018590526024810184905260009081906001600160a01b03881690632a55205a906044016040805180830381865afa1580156128da573d6000803e3d6000fd5b505050506040513d601f19601f820116820180604052508101906128fe91906132c9565b909250905084811561292a5761291d6001600160a01b03841683612aa5565b612927828261315a565b90505b60006127106129597f0000000000000000000000000000000000000000000000000000000000000000846132f7565b612963919061330e565b9050612990816129816001546001600160a01b036101009091041690565b6001600160a01b031690612aa5565b600061299c828461315a565b6001600160a01b0388166000908152600360205260408120805492935083929091906129c99084906130e9565b9091555050604051632142170760e11b81526001600160a01b0388811660048301528781166024830152604482018b90528b16906342842e0e90606401600060405180830381600087803b158015612a2057600080fd5b505af1158015612a34573d6000803e3d6000fd5b5050604080518b81526001600160a01b038b81166020830152428284015260608201899052898116608083015291518d94508e83169350918a16917f4efdc16f52cfecc37c2cc219ac2323122fa24b2fc6d61f93414d60bae42dd7a09181900360a00190a450505050505050505050565b80471015612acf5760405163cf47918160e01b815247600482015260248101829052604401611ef6565b600080836001600160a01b03168360405160006040518083038185875af1925050503d8060008114612b1d576040519150601f19603f3d011682016040523d82523d6000602084013e612b22565b606091505b509150915081612b3557612b3581612c0e565b50505050565b60208101516001600160a01b03161561226c5761226c8160a0015182602001516001600160a01b0316612aa590919063ffffffff16565b6000818152600183016020526040812054612bb957508154600181810184556000848152602080822090930184905584548482528286019093526040902091909155611046565b506000611046565b60015460ff1661082557604051638dfc202b60e01b815260040160405180910390fd5b6000826000018281548110612bfb57612bfb613144565b9060005260206000200154905092915050565b805115612c1e5780518082602001fd5b60405163d6bda27560e01b815260040160405180910390fd5b6001600160a01b038116811461226c57600080fd5b600060208284031215612c5e57600080fd5b813561243981612c37565b634e487b7160e01b600052604160045260246000fd5b604051601f8201601f191681016001600160401b0381118282101715612ca757612ca7612c69565b604052919050565b60006001600160401b03821115612cc857612cc8612c69565b50601f01601f191660200190565b60008060408385031215612ce957600080fd5b8235915060208301356001600160401b03811115612d0657600080fd5b8301601f81018513612d1757600080fd5b8035612d2a612d2582612caf565b612c7f565b818152866020838501011115612d3f57600080fd5b816020840160208301376000602083830101528093505050509250929050565b60008060408385031215612d7257600080fd5b8235612d7d81612c37565b946020939093013593505050565b600080600080600060a08688031215612da357600080fd5b8535612dae81612c37565b9450602086013593506040860135925060608601358015158114612dd157600080fd5b949793965091946080013592915050565b602080825282518282018190526000918401906040840190835b81811015612e1a578351835260209384019390920191600101612dfc565b509095945050505050565b600080600060608486031215612e3a57600080fd5b505081359360208301359350604090920135919050565b600081518084526020840193506020830160005b82811015612e8c5781516001600160a01b0316865260209586019590910190600101612e65565b5093949350505050565b600081518084526020840193506020830160005b82811015612e8c578151865260209586019590910190600101612eaa565b608081526000612edb6080830187612e51565b8281036020840152612eed8187612e96565b90508281036040840152612f018186612e51565b90508281036060840152612f158185612e96565b979650505050505050565b60005b83811015612f3b578181015183820152602001612f23565b50506000910152565b60008151808452612f5c816020860160208601612f20565b601f01601f19169290920160200192915050565b6020815260006124396020830184612f44565b602080825282518282018190526000918401906040840190835b81811015612e1a57835180516001600160a01b03168452602080820151818601526040918201519185019190915290930192606090920191600101612f9d565b60c081526000612ff060c0830189612e51565b82810360208401526130028189612e96565b905082810360408401526130168188612e51565b9050828103606084015261302a8187612e96565b9050828103608084015261303e8186612e96565b905082810360a08401526130528185612e96565b9998505050505050505050565b60008060006060848603121561307457600080fd5b833561307f81612c37565b95602085013595506040909401359392505050565b6040815260006130a76040830185612f44565b90508260208301529392505050565b6000602082840312156130c857600080fd5b815161243981612c37565b634e487b7160e01b600052601160045260246000fd5b80820180821115611046576110466130d3565b868152851515602082015284604082015283606082015260c06080820152600061312960c0830185612f44565b905060018060a01b03831660a0830152979650505050505050565b634e487b7160e01b600052603260045260246000fd5b81810381811115611046576110466130d3565b60006020828403121561317f57600080fd5b81516001600160401b0381111561319557600080fd5b8201601f810184136131a657600080fd5b80516001600160401b038111156131bf576131bf612c69565b8060051b6131cf60208201612c7f565b918252602081840181019290810190878411156131eb57600080fd5b6020850194505b83851015612f155784518252602094850194909101906131f2565b60006001820161321f5761321f6130d3565b5060010190565b600081613235576132356130d3565b506000190190565b634e487b7160e01b600052603160045260246000fd5b60006020828403121561326557600080fd5b81516001600160401b0381111561327b57600080fd5b8201601f8101841361328c57600080fd5b805161329a612d2582612caf565b8181528560208385010111156132af57600080fd5b6132c0826020830160208601612f20565b95945050505050565b600080604083850312156132dc57600080fd5b82516132e781612c37565b6020939093015192949293505050565b8082028115828204841417611046576110466130d3565b60008261332b57634e487b7160e01b600052601260045260246000fd5b50049056fea26469706673582212202a5692c006a23a779c28d79b88a52e270aac7bf316355aec1d6720a17cff18b264736f6c634300081a003300000000000000000000000000000000000000000000000000000000000000fa",
        "nonce": "0x4b",
        "chainId": "0xaa36a7"
      },
      "additionalContracts": [],
      "isFixedGasLimit": false
    },
    {
      "hash": "0x13a0c8a1f11a468e8a840519e393d2816b97a887c064c2e37f606bdc613873fb",
      "transactionType": "CALL",
      "contractName": "NFTMarketplace",
      "contractAddress": "0x29cdad5194854d2063da1b751dbab7fac7b3b9fc",
      "function": "addCategory(bytes32,string)",
      "arguments": [
        "0x0b9e798fb63a97e2880728d6ee26a8663d4e4ab71e343d4642d35a673f78fc72",
        "Art"
      ],
      "transaction": {
        "from": "0x1360eda247bf2fefecc5fd5926ac1ef628b19733",
        "to": "0x29cdad5194854d2063da1b751dbab7fac7b3b9fc",
        "gas": "0x1fc7f",
        "value": "0x0",
        "input": "0x297d574e0b9e798fb63a97e2880728d6ee26a8663d4e4ab71e343d4642d35a673f78fc72000000000000000000000000000000000000000000000000000000000000004000000000000000000000000000000000000000000000000000000000000000034172740000000000000000000000000000000000000000000000000000000000",
        "nonce": "0x4c",
        "chainId": "0xaa36a7"
      },
      "additionalContracts": [],
      "isFixedGasLimit": false
    },
    {
      "hash": "0x18c5d2947db85f299f350782169300f636faf59144f02fd429af47616505646d",
      "transactionType": "CALL",
      "contractName": "NFTMarketplace",
      "contractAddress": "0x29cdad5194854d2063da1b751dbab7fac7b3b9fc",
      "function": "addCategory(bytes32,string)",
      "arguments": [
        "0xdcbd85f7b855b680e3c6fcf6bb52fa28a833b94ff0b5292e72066b58278c47d4",
        "Collectibles"
      ],
      "transaction": {
        "from": "0x1360eda247bf2fefecc5fd5926ac1ef628b19733",
        "to": "0x29cdad5194854d2063da1b751dbab7fac7b3b9fc",
        "gas": "0x1a0d1",
        "value": "0x0",
        "input": "0x297d574edcbd85f7b855b680e3c6fcf6bb52fa28a833b94ff0b5292e72066b58278c47d40000000000000000000000000000000000000000000000000000000000000040000000000000000000000000000000000000000000000000000000000000000c436f6c6c65637469626c65730000000000000000000000000000000000000000",
        "nonce": "0x4d",
        "chainId": "0xaa36a7"
      },
      "additionalContracts": [],
      "isFixedGasLimit": false
    },
    {
      "hash": "0xd5d76c11029d6a5fb4b1a6cb3f49142fdb260230d216c94fc8f4f940cc2cd29d",
      "transactionType": "CALL",
      "contractName": "NFTMarketplace",
      "contractAddress": "0x29cdad5194854d2063da1b751dbab7fac7b3b9fc",
      "function": "addCategory(bytes32,string)",
      "arguments": [
        "0x801ab35ceec6a72b0dd35d2fbb65f72612351351d7640ea613397091d2d96a35",
        "Game Items"
      ],
      "transaction": {
        "from": "0x1360eda247bf2fefecc5fd5926ac1ef628b19733",
        "to": "0x29cdad5194854d2063da1b751dbab7fac7b3b9fc",
        "gas": "0x1a0af",
        "value": "0x0",
        "input": "0x297d574e801ab35ceec6a72b0dd35d2fbb65f72612351351d7640ea613397091d2d96a350000000000000000000000000000000000000000000000000000000000000040000000000000000000000000000000000000000000000000000000000000000a47616d65204974656d7300000000000000000000000000000000000000000000",
        "nonce": "0x4e",
        "chainId": "0xaa36a7"
      },
      "additionalContracts": [],
      "isFixedGasLimit": false
    },
    {
      "hash": "0x3d5dede7f7f16591ce47bf85af5cd80bb060f2402f40f69b395819a6d46a1fb0",
      "transactionType": "CALL",
      "contractName": "NFTMarketplace",
      "contractAddress": "0x29cdad5194854d2063da1b751dbab7fac7b3b9fc",
      "function": "addCategory(bytes32,string)",
      "arguments": [
        "0xa61dacc5dd4531e9f2bc33b275407851df288a00ddb3887a51b4308dfe230aff",
        "Music"
      ],
      "transaction": {
        "from": "0x1360eda247bf2fefecc5fd5926ac1ef628b19733",
        "to": "0x29cdad5194854d2063da1b751dbab7fac7b3b9fc",
        "gas": "0x1a04c",
        "value": "0x0",
        "input": "0x297d574ea61dacc5dd4531e9f2bc33b275407851df288a00ddb3887a51b4308dfe230aff000000000000000000000000000000000000000000000000000000000000004000000000000000000000000000000000000000000000000000000000000000054d75736963000000000000000000000000000000000000000000000000000000",
        "nonce": "0x4f",
        "chainId": "0xaa36a7"
      },
      "additionalContracts": [],
      "isFixedGasLimit": false
    },
    {
      "hash": "0xd1cf6c91c74fa98ed183b413db9fb375be53223e5e9f9694c3b09f883fd164af",
      "transactionType": "CALL",
      "contractName": "NFTMarketplace",
      "contractAddress": "0x29cdad5194854d2063da1b751dbab7fac7b3b9fc",
      "function": "addCategory(bytes32,string)",
      "arguments": [
        "0xbde91ae80acf376eaa41aa35539db67d166e1fb505fe74fac4b0204ad77463cd",
        "Photography"
      ],
      "transaction": {
        "from": "0x1360eda247bf2fefecc5fd5926ac1ef628b19733",
        "to": "0x29cdad5194854d2063da1b751dbab7fac7b3b9fc",
        "gas": "0x1b944",
        "value": "0x0",
        "input": "0x297d574ebde91ae80acf376eaa41aa35539db67d166e1fb505fe74fac4b0204ad77463cd0000000000000000000000000000000000000000000000000000000000000040000000000000000000000000000000000000000000000000000000000000000b50686f746f677261706879000000000000000000000000000000000000000000",
        "nonce": "0x50",
        "chainId": "0xaa36a7"
      },
      "additionalContracts": [],
      "isFixedGasLimit": false
    },
    {
      "hash": "0xd217c2e121efc91a81cefaf4f2515253852c49c5137b0e21a427bfc2743199cc",
      "transactionType": "CALL",
      "contractName": "NFTMarketplace",
      "contractAddress": "0x29cdad5194854d2063da1b751dbab7fac7b3b9fc",
      "function": "addCategory(bytes32,string)",
      "arguments": [
        "0x8dee93ee1682ab688c4ec6e8ba67f213167341b039a1ef81480f7111eb3e3c78",
        "Sports"
      ],
      "transaction": {
        "from": "0x1360eda247bf2fefecc5fd5926ac1ef628b19733",
        "to": "0x29cdad5194854d2063da1b751dbab7fac7b3b9fc",
        "gas": "0x1a06d",
        "value": "0x0",
        "input": "0x297d574e8dee93ee1682ab688c4ec6e8ba67f213167341b039a1ef81480f7111eb3e3c780000000000000000000000000000000000000000000000000000000000000040000000000000000000000000000000000000000000000000000000000000000653706f7274730000000000000000000000000000000000000000000000000000",
        "nonce": "0x51",
        "chainId": "0xaa36a7"
      },
      "additionalContracts": [],
      "isFixedGasLimit": false
    },
    {
      "hash": "0x8181bad9bb33a4af892677379e9b2f180893179cd0fa6c46c1bfeb36c1115b72",
      "transactionType": "CALL",
      "contractName": "NFTMarketplace",
      "contractAddress": "0x29cdad5194854d2063da1b751dbab7fac7b3b9fc",
      "function": "addCategory(bytes32,string)",
      "arguments": [
        "0xa0e5000d931135ebdd846434558a0157f52fa579cb116deeedcedc42aa58385c",
        "Utility"
      ],
      "transaction": {
        "from": "0x1360eda247bf2fefecc5fd5926ac1ef628b19733",
        "to": "0x29cdad5194854d2063da1b751dbab7fac7b3b9fc",
        "gas": "0x1a06d",
        "value": "0x0",
        "input": "0x297d574ea0e5000d931135ebdd846434558a0157f52fa579cb116deeedcedc42aa58385c000000000000000000000000000000000000000000000000000000000000004000000000000000000000000000000000000000000000000000000000000000075574696c69747900000000000000000000000000000000000000000000000000",
        "nonce": "0x52",
        "chainId": "0xaa36a7"
      },
      "additionalContracts": [],
      "isFixedGasLimit": false
    },
    {
      "hash": "0x0a1d02ea1c1aaa76b3a523c1a61539f8d8f59023642be0f608d8ae8707f4a017",
      "transactionType": "CALL",
      "contractName": "NFTMarketplace",
      "contractAddress": "0x29cdad5194854d2063da1b751dbab7fac7b3b9fc",
      "function": "addCategory(bytes32,string)",
      "arguments": [
        "0x0691aa2e8423768d061c955d231ebcfd39568459920cd05dc1ff1ffe2ca6f04a",
        "Other"
      ],
      "transaction": {
        "from": "0x1360eda247bf2fefecc5fd5926ac1ef628b19733",
        "to": "0x29cdad5194854d2063da1b751dbab7fac7b3b9fc",
        "gas": "0x1b8db",
        "value": "0x0",
        "input": "0x297d574e0691aa2e8423768d061c955d231ebcfd39568459920cd05dc1ff1ffe2ca6f04a000000000000000000000000000000000000000000000000000000000000004000000000000000000000000000000000000000000000000000000000000000054f74686572000000000000000000000000000000000000000000000000000000",
        "nonce": "0x53",
        "chainId": "0xaa36a7"
      },
      "additionalContracts": [],
      "isFixedGasLimit": false
    }
  ],
  "receipts": [
    {
      "status": "0x1",
      "cumulativeGasUsed": "0x1807242",
      "logs": [
        {
          "address": "0x29cdad5194854d2063da1b751dbab7fac7b3b9fc",
          "topics": [
            "0x8be0079c531659141344cd1fd0a4f28419497f9722a3daafe3b4186f6b6457e0",
            "0x0000000000000000000000000000000000000000000000000000000000000000",
            "0x0000000000000000000000001360eda247bf2fefecc5fd5926ac1ef628b19733"
          ],
          "data": "0x",
          "blockHash": "0xb2c8e580171639d66e3f0dcb51a85a74582a680ae9bbb7a5a5809566911e7e9e",
          "blockNumber": "0x724a92",
          "transactionHash": "0x249fe8017c0c460db980c034afa3c705d068c92a4e3dfae1424651eaf7566270",
          "transactionIndex": "0x67",
          "logIndex": "0x123",
          "removed": false
        }
      ],
      "logsBloom": "0x00000000000010000000000000000000000000000000000000800000000000000000000000000000000000000000000000000000000200000002000000000000000000000000400000000000000000000001000000000000000000000000000000000000020000002000000000000800000000000000000000000000000000400000000000000000000000000000000000000000000000000000000000000000000000000000000000000000000000000000000000000000000000000000000000000000000000000000200000000000000000000000000000000000000020000000000000000000000000000000000000000000000000000000000000000000",
      "type": "0x2",
      "transactionHash": "0x249fe8017c0c460db980c034afa3c705d068c92a4e3dfae1424651eaf7566270",
      "transactionIndex": "0x67",
      "blockHash": "0xb2c8e580171639d66e3f0dcb51a85a74582a680ae9bbb7a5a5809566911e7e9e",
      "blockNumber": "0x724a92",
      "gasUsed": "0x2cefc1",
      "effectiveGasPrice": "0x3e57184cf",
      "from": "0x1360eda247bf2fefecc5fd5926ac1ef628b19733",
      "to": null,
      "contractAddress": "0x29cdad5194854d2063da1b751dbab7fac7b3b9fc"
    },
    {
      "status": "0x1",
      "cumulativeGasUsed": "0x181e267",
      "logs": [
        {
          "address": "0x29cdad5194854d2063da1b751dbab7fac7b3b9fc",
          "topics": [
            "0x6d823bbd9c63542e0b69819341e637c0c52b2f48369607c2ca92f7a92019fb8b",
            "0x0b9e798fb63a97e2880728d6ee26a8663d4e4ab71e343d4642d35a673f78fc72"
          ],
          "data": "0x0000000000000000000000000000000000000000000000000000000000000040000000000000000000000000000000000000000000000000000000006786708000000000000000000000000000000000000000000000000000000000000000034172740000000000000000000000000000000000000000000000000000000000",
          "blockHash": "0xb2c8e580171639d66e3f0dcb51a85a74582a680ae9bbb7a5a5809566911e7e9e",
          "blockNumber": "0x724a92",
          "transactionHash": "0x13a0c8a1f11a468e8a840519e393d2816b97a887c064c2e37f606bdc613873fb",
          "transactionIndex": "0x68",
          "logIndex": "0x124",
          "removed": false
        }
      ],
      "logsBloom": "0x00000000000010000000000000000000000000000000000000000000000000000000000000000000000000010000000000000000000000000002000000000000000000000000000000000000000000000000000000000000000000000000000000000000000000000000000000000000000000000000000000000000000000000000000000000000000000000000000000000400000000000000000000000000100000000000000000000000000000000000000000000000000000000000000100000000000000000000200000000000000000000000000000000000000000000000000000000000000040010000000000000000000000000000000000000000",
      "type": "0x2",
      "transactionHash": "0x13a0c8a1f11a468e8a840519e393d2816b97a887c064c2e37f606bdc613873fb",
      "transactionIndex": "0x68",
      "blockHash": "0xb2c8e580171639d66e3f0dcb51a85a74582a680ae9bbb7a5a5809566911e7e9e",
      "blockNumber": "0x724a92",
      "gasUsed": "0x17025",
      "effectiveGasPrice": "0x3e57184cf",
      "from": "0x1360eda247bf2fefecc5fd5926ac1ef628b19733",
      "to": "0x29cdad5194854d2063da1b751dbab7fac7b3b9fc",
      "contractAddress": null
    },
    {
      "status": "0x1",
      "cumulativeGasUsed": "0x183102c",
      "logs": [
        {
          "address": "0x29cdad5194854d2063da1b751dbab7fac7b3b9fc",
          "topics": [
            "0x6d823bbd9c63542e0b69819341e637c0c52b2f48369607c2ca92f7a92019fb8b",
            "0xdcbd85f7b855b680e3c6fcf6bb52fa28a833b94ff0b5292e72066b58278c47d4"
          ],
          "data": "0x00000000000000000000000000000000000000000000000000000000000000400000000000000000000000000000000000000000000000000000000067867080000000000000000000000000000000000000000000000000000000000000000c436f6c6c65637469626c65730000000000000000000000000000000000000000",
          "blockHash": "0xb2c8e580171639d66e3f0dcb51a85a74582a680ae9bbb7a5a5809566911e7e9e",
          "blockNumber": "0x724a92",
          "transactionHash": "0x18c5d2947db85f299f350782169300f636faf59144f02fd429af47616505646d",
          "transactionIndex": "0x69",
          "logIndex": "0x125",
          "removed": false
        }
      ],
      "logsBloom": "0x00000000000010000000000000800000000000000000000000000000000000000000000000000000000000000000000000000000000000000002000000000000000000000000000000000000000000000000000000000000000000000000000000000000000000000000000000000000000000000000000000000000000000000000000000000000000000000000000000000400000000000000000000000000100000000200000000000000000000000000000000000020000000000000000000000000000000000000200000000000000000000000000000000000000000000000000000000000000040000000000000000000000000000000000000000000",
      "type": "0x2",
      "transactionHash": "0x18c5d2947db85f299f350782169300f636faf59144f02fd429af47616505646d",
      "transactionIndex": "0x69",
      "blockHash": "0xb2c8e580171639d66e3f0dcb51a85a74582a680ae9bbb7a5a5809566911e7e9e",
      "blockNumber": "0x724a92",
      "gasUsed": "0x12dc5",
      "effectiveGasPrice": "0x3e57184cf",
      "from": "0x1360eda247bf2fefecc5fd5926ac1ef628b19733",
      "to": "0x29cdad5194854d2063da1b751dbab7fac7b3b9fc",
      "contractAddress": null
    },
    {
      "status": "0x1",
      "cumulativeGasUsed": "0x1843dd9",
      "logs": [
        {
          "address": "0x29cdad5194854d2063da1b751dbab7fac7b3b9fc",
          "topics": [
            "0x6d823bbd9c63542e0b69819341e637c0c52b2f48369607c2ca92f7a92019fb8b",
            "0x801ab35ceec6a72b0dd35d2fbb65f72612351351d7640ea613397091d2d96a35"
          ],
          "data": "0x00000000000000000000000000000000000000000000000000000000000000400000000000000000000000000000000000000000000000000000000067867080000000000000000000000000000000000000000000000000000000000000000a47616d65204974656d7300000000000000000000000000000000000000000000",
          "blockHash": "0xb2c8e580171639d66e3f0dcb51a85a74582a680ae9bbb7a5a5809566911e7e9e",
          "blockNumber": "0x724a92",
          "transactionHash": "0xd5d76c11029d6a5fb4b1a6cb3f49142fdb260230d216c94fc8f4f940cc2cd29d",
          "transactionIndex": "0x6a",
          "logIndex": "0x126",
          "removed": false
        }
      ],
      "logsBloom": "0x00000000000010000000000000000000000000000000000000000000000000000000000000000000000000000000000000000000000000000002000000000000000000000000000000000000000000000000000000000000008000000000000000000000000000000000000000000000000000000000000000000000000000000000000000000000000000000000000000000400000000000000000000000000100000000000000000000000000000000000000000000000000000000000000000000000000000000000200000000000000800000000000000000000000000000800000000000000000040000000000000000000000000000000000000000000",
      "type": "0x2",
      "transactionHash": "0xd5d76c11029d6a5fb4b1a6cb3f49142fdb260230d216c94fc8f4f940cc2cd29d",
      "transactionIndex": "0x6a",
      "blockHash": "0xb2c8e580171639d66e3f0dcb51a85a74582a680ae9bbb7a5a5809566911e7e9e",
      "blockNumber": "0x724a92",
      "gasUsed": "0x12dad",
      "effectiveGasPrice": "0x3e57184cf",
      "from": "0x1360eda247bf2fefecc5fd5926ac1ef628b19733",
      "to": "0x29cdad5194854d2063da1b751dbab7fac7b3b9fc",
      "contractAddress": null
    },
    {
      "status": "0x1",
      "cumulativeGasUsed": "0x1856b3e",
      "logs": [
        {
          "address": "0x29cdad5194854d2063da1b751dbab7fac7b3b9fc",
          "topics": [
            "0x6d823bbd9c63542e0b69819341e637c0c52b2f48369607c2ca92f7a92019fb8b",
            "0xa61dacc5dd4531e9f2bc33b275407851df288a00ddb3887a51b4308dfe230aff"
          ],
          "data": "0x0000000000000000000000000000000000000000000000000000000000000040000000000000000000000000000000000000000000000000000000006786708000000000000000000000000000000000000000000000000000000000000000054d75736963000000000000000000000000000000000000000000000000000000",
          "blockHash": "0xb2c8e580171639d66e3f0dcb51a85a74582a680ae9bbb7a5a5809566911e7e9e",
          "blockNumber": "0x724a92",
          "transactionHash": "0x3d5dede7f7f16591ce47bf85af5cd80bb060f2402f40f69b395819a6d46a1fb0",
          "transactionIndex": "0x6b",
          "logIndex": "0x127",
          "removed": false
        }
      ],
      "logsBloom": "0x00000000000010000000000000000000000000000000000000000000000000000000000000000000002000000000000000000000000000000002000000000000000000000004000000000000000000000000000000000000000000000000000000000000000000000000000000000000000000000000000000000000000000000000000000000000000000000000008000000400000000000000000000000000100000000000000000000000000000000000000000000000000000000000000000000000000000000000200000000000000000000000000000000000000000000000000000000000000040000000000000000000000000000000000000000000",
      "type": "0x2",
      "transactionHash": "0x3d5dede7f7f16591ce47bf85af5cd80bb060f2402f40f69b395819a6d46a1fb0",
      "transactionIndex": "0x6b",
      "blockHash": "0xb2c8e580171639d66e3f0dcb51a85a74582a680ae9bbb7a5a5809566911e7e9e",
      "blockNumber": "0x724a92",
      "gasUsed": "0x12d65",
      "effectiveGasPrice": "0x3e57184cf",
      "from": "0x1360eda247bf2fefecc5fd5926ac1ef628b19733",
      "to": "0x29cdad5194854d2063da1b751dbab7fac7b3b9fc",
      "contractAddress": null
    },
    {
      "status": "0x1",
      "cumulativeGasUsed": "0x18698f7",
      "logs": [
        {
          "address": "0x29cdad5194854d2063da1b751dbab7fac7b3b9fc",
          "topics": [
            "0x6d823bbd9c63542e0b69819341e637c0c52b2f48369607c2ca92f7a92019fb8b",
            "0xbde91ae80acf376eaa41aa35539db67d166e1fb505fe74fac4b0204ad77463cd"
          ],
          "data": "0x00000000000000000000000000000000000000000000000000000000000000400000000000000000000000000000000000000000000000000000000067867080000000000000000000000000000000000000000000000000000000000000000b50686f746f677261706879000000000000000000000000000000000000000000",
          "blockHash": "0xb2c8e580171639d66e3f0dcb51a85a74582a680ae9bbb7a5a5809566911e7e9e",
          "blockNumber": "0x724a92",
          "transactionHash": "0xd1cf6c91c74fa98ed183b413db9fb375be53223e5e9f9694c3b09f883fd164af",
          "transactionIndex": "0x6c",
          "logIndex": "0x128",
          "removed": false
        }
      ],
      "logsBloom": "0x00000000000010000000000000000000000000000000000000000000000000000000000000000000000000000000000000000000000000000002000000000000000000000000000400000000000000000000000000000000000000000000000000000000000000000000000000000000000000000000000000000000000000000000000000000002000000000000000000000400000000000000000000000000100000000000000000000000000000000000000000000000000000000000000000000000000000000000200000000000000000000000000000000000000000000000000000000000000040000000000000008000000000000000000000000000",
      "type": "0x2",
      "transactionHash": "0xd1cf6c91c74fa98ed183b413db9fb375be53223e5e9f9694c3b09f883fd164af",
      "transactionIndex": "0x6c",
      "blockHash": "0xb2c8e580171639d66e3f0dcb51a85a74582a680ae9bbb7a5a5809566911e7e9e",
      "blockNumber": "0x724a92",
      "gasUsed": "0x12db9",
      "effectiveGasPrice": "0x3e57184cf",
      "from": "0x1360eda247bf2fefecc5fd5926ac1ef628b19733",
      "to": "0x29cdad5194854d2063da1b751dbab7fac7b3b9fc",
      "contractAddress": null
    },
    {
      "status": "0x1",
      "cumulativeGasUsed": "0x187c674",
      "logs": [
        {
          "address": "0x29cdad5194854d2063da1b751dbab7fac7b3b9fc",
          "topics": [
            "0x6d823bbd9c63542e0b69819341e637c0c52b2f48369607c2ca92f7a92019fb8b",
            "0x8dee93ee1682ab688c4ec6e8ba67f213167341b039a1ef81480f7111eb3e3c78"
          ],
          "data": "0x00000000000000000000000000000000000000000000000000000000000000400000000000000000000000000000000000000000000000000000000067867080000000000000000000000000000000000000000000000000000000000000000653706f7274730000000000000000000000000000000000000000000000000000",
          "blockHash": "0xb2c8e580171639d66e3f0dcb51a85a74582a680ae9bbb7a5a5809566911e7e9e",
          "blockNumber": "0x724a92",
          "transactionHash": "0xd217c2e121efc91a81cefaf4f2515253852c49c5137b0e21a427bfc2743199cc",
          "transactionIndex": "0x6d",
          "logIndex": "0x129",
          "removed": false
        }
      ],
      "logsBloom": "0x00000000000010000000000000000000000000000000000000000000000000000000000000000000000000000000000000000000000000000002000000000000000000000000000000000000000000000000000000000000000000000000000400000000000000000000000000000000000200000000000000000000000000000000000000000000000000000000000000000400000000000000000000000000100000000000000000000000000000000000000000000000000000000000000000000000000000000000200000000000000000000080000000000000000000000000000000000000000040000000000000000000000000000000000000000000",
      "type": "0x2",
      "transactionHash": "0xd217c2e121efc91a81cefaf4f2515253852c49c5137b0e21a427bfc2743199cc",
      "transactionIndex": "0x6d",
      "blockHash": "0xb2c8e580171639d66e3f0dcb51a85a74582a680ae9bbb7a5a5809566911e7e9e",
      "blockNumber": "0x724a92",
      "gasUsed": "0x12d7d",
      "effectiveGasPrice": "0x3e57184cf",
      "from": "0x1360eda247bf2fefecc5fd5926ac1ef628b19733",
      "to": "0x29cdad5194854d2063da1b751dbab7fac7b3b9fc",
      "contractAddress": null
    },
    {
      "status": "0x1",
      "cumulativeGasUsed": "0x188f3f1",
      "logs": [
        {
          "address": "0x29cdad5194854d2063da1b751dbab7fac7b3b9fc",
          "topics": [
            "0x6d823bbd9c63542e0b69819341e637c0c52b2f48369607c2ca92f7a92019fb8b",
            "0xa0e5000d931135ebdd846434558a0157f52fa579cb116deeedcedc42aa58385c"
          ],
          "data": "0x0000000000000000000000000000000000000000000000000000000000000040000000000000000000000000000000000000000000000000000000006786708000000000000000000000000000000000000000000000000000000000000000075574696c69747900000000000000000000000000000000000000000000000000",
          "blockHash": "0xb2c8e580171639d66e3f0dcb51a85a74582a680ae9bbb7a5a5809566911e7e9e",
          "blockNumber": "0x724a92",
          "transactionHash": "0x8181bad9bb33a4af892677379e9b2f180893179cd0fa6c46c1bfeb36c1115b72",
          "transactionIndex": "0x6e",
          "logIndex": "0x12a",
          "removed": false
        }
      ],
      "logsBloom": "0x00000000000010000000000000000000000000000000000000000000000000000000000000000000000000000000000000000000000000000002100000000000000000000000000000000000000000000000000000000000000000200000000000000000000000000000000000000000000000000000000000000000000000000000000000000000000000000000000000000400000000000000000000000000100000000000000000000000000000000000000000000000000000000000000000000000000000000000210000000000000000000000000000000000000000000000000000000000000040000000000000000000000000000000000000000000",
      "type": "0x2",
      "transactionHash": "0x8181bad9bb33a4af892677379e9b2f180893179cd0fa6c46c1bfeb36c1115b72",
      "transactionIndex": "0x6e",
      "blockHash": "0xb2c8e580171639d66e3f0dcb51a85a74582a680ae9bbb7a5a5809566911e7e9e",
      "blockNumber": "0x724a92",
      "gasUsed": "0x12d7d",
      "effectiveGasPrice": "0x3e57184cf",
      "from": "0x1360eda247bf2fefecc5fd5926ac1ef628b19733",
      "to": "0x29cdad5194854d2063da1b751dbab7fac7b3b9fc",
      "contractAddress": null
    },
    {
      "status": "0x1",
      "cumulativeGasUsed": "0x18a2162",
      "logs": [
        {
          "address": "0x29cdad5194854d2063da1b751dbab7fac7b3b9fc",
          "topics": [
            "0x6d823bbd9c63542e0b69819341e637c0c52b2f48369607c2ca92f7a92019fb8b",
            "0x0691aa2e8423768d061c955d231ebcfd39568459920cd05dc1ff1ffe2ca6f04a"
          ],
          "data": "0x0000000000000000000000000000000000000000000000000000000000000040000000000000000000000000000000000000000000000000000000006786708000000000000000000000000000000000000000000000000000000000000000054f74686572000000000000000000000000000000000000000000000000000000",
          "blockHash": "0xb2c8e580171639d66e3f0dcb51a85a74582a680ae9bbb7a5a5809566911e7e9e",
          "blockNumber": "0x724a92",
          "transactionHash": "0x0a1d02ea1c1aaa76b3a523c1a61539f8d8f59023642be0f608d8ae8707f4a017",
          "transactionIndex": "0x6f",
          "logIndex": "0x12b",
          "removed": false
        }
      ],
      "logsBloom": "0x00000000000010000000000000000000000000000000000000000000000000000000000000000000000000000000000000000000000000000002000000000000000000000000000000000000000000000000000000000000000000000000000000000000000000000000000000000000000000000000000000000400000000000000000000000000000000000000000000000400000000000000000000000000100000000000000000000020000000000000000000000000000000000000000000000000000000000000200000000000000000000200000000000000000000000000000000000000000040000000000000000000000000000000000000000000",
      "type": "0x2",
      "transactionHash": "0x0a1d02ea1c1aaa76b3a523c1a61539f8d8f59023642be0f608d8ae8707f4a017",
      "transactionIndex": "0x6f",
      "blockHash": "0xb2c8e580171639d66e3f0dcb51a85a74582a680ae9bbb7a5a5809566911e7e9e",
      "blockNumber": "0x724a92",
      "gasUsed": "0x12d71",
      "effectiveGasPrice": "0x3e57184cf",
      "from": "0x1360eda247bf2fefecc5fd5926ac1ef628b19733",
      "to": "0x29cdad5194854d2063da1b751dbab7fac7b3b9fc",
      "contractAddress": null
    }
  ],
  "libraries": [],
  "pending": [],
  "returns": {
    "0": {
      "internal_type": "contract NFTMarketplace",
      "value": "0x29cDaD5194854D2063da1B751DBAB7fAC7B3b9FC"
    },
    "1": {
      "internal_type": "contract HelperConfig",
      "value": "0xC7f2Cf4845C6db0e1a1e91ED41Bcd0FcC1b0E141"
    }
  },
  "timestamp": 1736863875,
  "chain": 11155111,
  "commit": "e07d7e3"
}